:020000040800F2
:1000000028820020790200087B58000899540008D3
:10001000795800088F2B00082961000800000000B3
:10002000000000000000000000000000D95B000894
:10003000EB2B00080000000081580008DB5B000883
:10004000930200089302000893020008C5590008B3
:10005000930200089302000893020008930200082C
:10006000F52B000893020008930200089302000891
:10007000912B0008930200089D2B000893020008B2
:10008000A92B0008B52B0008930200089302000872
:1000900093020008930200089302000893020008EC
:1000A000930200086D5C00089302000893020008A8
:1000B00093020008930200089302000893020008CC
:1000C00093020008930200089302000893020008BC
:1000D00093020008F9600008056100081D6100082E
:1000E000ED2B000893020008930200089302000819
:1000F000930200089302000893020008930200088C
:10010000930200089302000893020008930200087B
:10011000930200089302000893020008930200086B
:10012000930200089302000893020008930200085B
:1001300000F002F800F090F80AA090E8000C824469
:100140008344AAF10107DA4501D100F085F8AFF246
:10015000090EBAE80F0013F0010F18BFFB1A43F0A5
:1001600001031847B87F0000D87F0000103A24BF71
:1001700078C878C1FAD8520724BF30C830C144BF0C
:1001800004680C607047000000230024002500264E
:10019000103A28BF78C1FBD8520728BF30C148BFEA
:1001A0000B6070476E2900F0AA84702900F00B865E
:1001B000662907F04C86652907F04986672907F00C
:1001C0004686612907F0458603681B0A28BF41F06F
:1001D0008001692900F0F680642900F0F380752918
:1001E00000F0F0806F2900F09985782900F0D7851C
:1001F000E92900F03385E42900F03085F52900F085
:100200002D85EF2900F09685F82900F0D685036842
:10021000DB0928BF41F08001632900F0B484732911
:1002200000F0B984E32901F08782F32901F08C8280
:10023000002070471FB500F097FE04000020002149
:1002400007F092FC401C60600020002107F0A2FC37
:10025000E0601FBD10B510BD01F0E6FA1146FFF7D2
:10026000E9FF06F0ABFC01F005FE03B4FFF7F2FF77
:1002700003BC02F039F800000948804709480047EC
:10028000FEE7FEE7FEE7FEE7FEE7FEE7FEE7FEE746
:10029000FEE7FEE704480549054A064B70470000A3
:1002A000695C000831010008287C002028820020B9
:1002B000287E0020287E00207CB51D4616460C00B6
:1002C000009001D02044401E074B7B442A466946DB
:1002D0000190304600F02DFC05461CB10020694617
:1002E00000F03AFC28467CBD950800000FB47CB5B0
:1002F0000C0009AA009001D02044401E084B7B440A
:1003000069460190089800F014FC05461CB10020D5
:10031000694600F021FC28467CBC5DF814FB000017
:100320006108000070B5044685690068C10601D502
:10033000302600E02026C00707D070BDD4E9012197
:1003400030469047206A401C20626D1EF6D570BD75
:1003500070B5044685690078C00707D170BDD4E93F
:10036000012120209047206A401C20626D1EF6D596
:1003700070BD70B50C460546012A05D02878800668
:1003800000D5EA69002302E0012305E05B1C9342EB
:1003900002D2E05C0028F9D1A869E618C01AA86169
:1003A000286A184428622846FFF7BCFF04E0D5E914
:1003B000012114F8010B9047B442F8D32846FFF707
:1003C000C7FF70BD2DE9F04106460024106875296D
:1003D000314616A510D000F027FB002802DA404273
:1003E00013A507E031688A0701D512A502E0490785
:1003F00004D511A5012401E000F01FFB00210A2211
:1004000006F1240709E0B0FBF2FCB0FBF2F302FBBB
:100410001C00303078541846491C0028F3D123467C
:100420002A463046BDE8F04100F010BB0000000055
:100430002D0000002B000000200000002DE9F05FDF
:10044000894604464FF0000ADFF874B1FB44C0F857
:1004500020A02046E1688847002874D0252806D0CF
:10046000D4E901219047206A401C2062F1E7002670
:100470005F462046E16888472028054607DB312D86
:1004800005D2781910F8200C08B10643F1E7B0073F
:1004900001D526F00406C4F81CA00027C4F818A053
:1004A0002A2D09D0284605F0CAFE38B304EB870888
:1004B000303DC8F8185019E059F8041B204604EBE9
:1004C00087029161E1688847012F054618D1E069EC
:1004D000002820DA26F020061DE0D8F8180000EBEE
:1004E000800005EB40003038C8F818002046E1686D
:1004F0008847054605F0A3FE0028EED1012F0AD05B
:100500002E2D08D12046E16888477F1C0546022F22
:1005100046F02006C4DBA069002803DA404246F01A
:100520000106A061F00701D026F010066C2D0BD05B
:10053000682D09D04C2D39D06A2D35D0742D35D089
:100540007A2D33D016E038E0E1682F462046884700
:10055000B842054609D16C2F26D04FF48060E1687F
:10056000064320468847054604E06C2F1AD04FF416
:10057000807006430DB3A5F14100192802D820353B
:1005800046F400664A462946204626604E46FFF756
:1005900009FE80B101280BD0F61D26F0070000F1FE
:1005A000080956E74020E4E78020D8E70020D6E796
:1005B00006F104094DE7284652E7206ABDE8F09F9E
:1005C0003A7B00002DE9F05F93460F4680460446D3
:1005D000002600F025FAD0F80090824614F8015B5E
:1005E0002DB100F015FA0068405DC007F6D12B2D43
:1005F00002D02D2D1AD0641E0021CAF800105A46D0
:100600003946204600F0EAFB014627B13868A0428F
:1006100001D1C7F80080DAF80000022809D0CAF832
:100620000090700505D54842BDE8F09F46F480660D
:10063000E2E70846F8E700F071BC401ECAB210F8C5
:10064000011F8A4202D00029F9D100207047002200
:10065000CBB210F8011B994200D1421E0029F8D1FB
:100660001046704710B5431C02E010F8011B71B131
:100670008107FAD14FF0013202C88C1A8C4314EA78
:10068000C211F9D0C01A0A0603D0C01E10BDC01A8C
:1006900010BD0A0401D0801E10BD0902FCD0401E0E
:1006A00010BD032A40F2308010F0030C00F01580DA
:1006B00011F8013BBCF1020F624498BF11F801CB65
:1006C00000F8013B38BF11F8013BA2F1040298BFCA
:1006D00000F801CB38BF00F8013B11F0030300F034
:1006E0002580083AC0F0088051F8043B083A51F8D8
:1006F00004CBA0E80810F5E7121D5CBF51F8043BDD
:1007000040F8043BAFF30080D20724BF11F8013B4F
:1007100011F801CB48BF11F8012B24BF00F8013BB1
:1007200000F801CB48BF00F8012B704710B5203A04
:10073000C0F00B80B1E81850203AA0E81850B1E89A
:100740001850A0E81850BFF4F5AF5FEA027C24BF50
:10075000B1E81850A0E8185044BF18C918C0BDE847
:1007600010405FEA827C24BF51F8043B40F8043B10
:1007700008BF7047D20728BF31F8023B48BF11F8C5
:10078000012B28BF20F8023B48BF00F8012B70471F
:100790004FF0000200B5134694469646203922BF1A
:1007A000A0E80C50A0E80C50B1F12001BFF4F7AF65
:1007B000090728BFA0E80C5048BF0CC05DF804EB47
:1007C000890028BF40F8042B08BF704748BF20F8B5
:1007D000022B11F0804F18BF00F8012B704700006A
:1007E0004FF0013C50F8042B51F8043B9A4221D1C0
:1007F000A2EB0C03934313EACC1317D150F8042B4C
:1008000051F8043B9A4215D1A2EB0C03934313EA2F
:10081000CC130BD150F8042B51F8043B9A4209D168
:10082000A2EB0C03934313EACC13DBD04FF0000090
:10083000704700BFD01A01BAB1FA81F101F0180176
:1008400022FA01F0CB40C1F12001DBB2C0B2C01AE4
:100850002CFA01F3D11A914311EAC311E6D1704782
:1008600010B503681C1404EB21449BB289B21944EF
:1008700094FBF2F302FB134394FBF2F401EB03430A
:1008800093FBF2F102FB113193FBF2F301E05B1EEB
:1008900011440029FBDB016003EB044010BD2DE98E
:1008A000F04704464FF0FF3A86B000680290606857
:1008B0000390A0680490E068019020690090656949
:1008C00005F18040B0F1004F7DD83C22002102A804
:1008D000FFF7C6FF3C22014603A8FFF7C1FF18221D
:1008E000014604A8FFF7BCFF411E40F2B55201A823
:1008F000FFF7B6FF0C22064668460021FFF7B0FF5F
:1009000000EB860028443E4D00267D440FE09A1AF5
:10091000491CCDE90012022902D00C2907D104E0BC
:10092000810704D0521C019201E0401C00960099FE
:10093000019B6A5C9A42EADD012906D11C2B04D195
:10094000810702D00221CDE90016A0F146018B29D2
:1009500040D20199009B00220F4602E0AE5C521C7F
:1009600031449A42FADB012B02DD820700D0491E96
:1009700040F2B55540F26D16C21700EB927292101C
:100980006A4300F0030505FB062285070A4400D1EF
:10099000521E049D02EB4206DDF80C80A94605EBD1
:1009A000C605184EC5EB0515DDF808C008EB850532
:1009B00035442E14ADB2C6EB0616C5EB0515B600D0
:1009C0000CEB850500E005E006EB154666F31F45D8
:1009D000360C03D0504606B0BDE8F087C4E90430B9
:1009E0007F1C0720521CC4E9029792FBF0F3E4E855
:1009F00006C800FB132084E803042846EBE7000048
:100A0000BE760000A039CEFD7047704770470000E9
:100A100010B500F0A9FA001D10BD00BF4D71000017
:100A200000487047C87B002009684A0501D540B2DC
:100A30007047C905FCD500B2704709684A0501D561
:100A4000C0B27047C905FCD580B270472DE9F047A8
:100A50000D4699469246044600F12408016888062E
:100A600004D5E06921F01001216000E00120A842D6
:100A700001DD471B00E00027A1697A1902EB09009C
:100A8000081AA0612078C00602D42046FFF74AFC6D
:100A9000002608E0D4E901211AF806009047206AF0
:100AA000401C761C20624E45F4DB2078C0060AD537
:100AB0002046FFF737FC06E0D4E9012130209047BB
:100AC000206A401C2062381EA7F10107F4DC07E011
:100AD000D4E9012118F805009047206A401C2062E3
:100AE000281EA5F10105F3DC2046FFF731FC207834
:100AF000000602D50220BDE8F0870120FBE711685F
:100B00000268006A530501D508700AE0D30501D5D3
:100B1000088006E0130603D5C217C1E9000200E011
:100B2000086001207047000001694A1C02610878D2
:100B3000704700B58FB0CDE901310021059105491D
:100B40007944CDE9031011466846FFF777FC0FB0F2
:100B500000BD0000E5FFFFFF0A6802F8010B0A6014
:100B60007047D1E900239A4202D2531C0B601070E7
:100B7000704710B5436913B1AFF3008001E0FFF790
:100B8000F8FB012010BD127800F124010A70002248
:100B90004A700122EDE711684FF0FF32E9E70000EB
:100BA0002DE9FF5F15468A460446DFF8AC80F8441D
:100BB0000027D8E900103E46CDE9001010E03AF8D1
:100BC00016106A4602A800F0F1FD411C07D02178FA
:100BD000890603D5E269391891420DD80744761C7D
:100BE0002078800602D5E069B84205DDAE42E6DB3A
:100BF0003AF816000028E2D1A069C01BA061204687
:100C0000FFF790FBD8E90010CDE90010002017E0B5
:100C10003AF818106A4602A800F0C8FDB0F1FF3F8C
:100C200081460BD000250DF1080B05E0D4E9012128
:100C30001BF8050090476D1C4D45F7D308F10100E6
:100C4000B0428046E4DB206A384420622046FFF749
:100C50007FFBBDE8FF9F0000EA7300002DE9F04133
:100C60008046D21D22F007020025D2E90002F529B4
:100C700015A614D0011E72F1000106DA0023D0EB94
:100C8000030063EB020211A608E0D8F800108B07FE
:100C900001D50FA602E0490701D50EA60125114690
:100CA000002408F1240704E000F062F930323A55DC
:100CB000641C50EA0102F7D12B46324621464046D9
:100CC000BDE8F041FFF7C2BE000000002D000000AB
:100CD0002B0000002000000030B4002100F12404AB
:100CE00008E002F00705D208303542EA4372DB081B
:100CF0006554491C52EA0305F3D10468002310A28D
:100D0000250708D504F020040C4304D0C46901234E
:100D10000CA2641EC46130BCFFF798BE10B5044637
:100D200021461068FFF789FE02462046BDE81040C4
:100D30000023D1E7D21D22F00701D1E90023CBE740
:100D40000000000030000000F0B40D4601880905E5
:100D500002D5214C7C4402E01F4C7C440E3400211F
:100D600000F1240608E002F00F071209E75D42EAED
:100D700003721B097754491C52EA0307F3D1027826
:100D80000023120704D5702D06D009B102231134B7
:100D90002246F0BCFFF75ABE01231034F8E770B5C5
:100DA00004460D4621461068FFF747FE02462946D5
:100DB0002046BDE870400023C6E7D21D22F007039D
:100DC000D3E90023C0E70368126843F020030360FF
:100DD0000823C3610023B7E74C7200002DE9F05FE0
:100DE000824615468B4600270AF10104B946007871
:100DF000302801D09DB113E014F8010B01277828A9
:100E000003D0582801D045B10AE00DB1102D07D10B
:100E1000002714F8010B102502E0082500E00A2540
:100E20000026B0460EE005FB080005FB06F1012791
:100E30001FFA80F801EB1046B6F5803F00D3B946A3
:100E400014F8010B294600F083FC0028EBDABBF113
:100E5000000F05D00FB1641E00E05446CBF80040EF
:100E6000B9F1000F06D0FFF7DBFD02210160C81EBB
:100E7000BDE8F09F48EA0640FAE700000FB40023FF
:100E800000B589B00CA900910B99CB60204B7B4435
:100E90000693204B7B44079304236FF00042CDE977
:100EA00001321D4A7A446B4608920246002007F040
:100EB00032F809B05DF814FB70B506464FF0FF300C
:100EC00015460C46324686B00091CDE901016946CF
:100ED0000020049004A8FFF7D1FF034604982118CE
:100EE00025B108B10A4600E022462A6000280DD04C
:100EF000002B02DD0098884208D03246081B694664
:100F00000094CDE9010404A8FFF7B8FF06B070BD56
:100F1000DB080000F3080000530100002DE9F04158
:100F200015460E46040002D12C6804B90BA42046D5
:100F300000F06CFC0444207870B1274631463846F6
:100F400000F054FC0444207810B1002004F8010B98
:100F500038462C60BDE8F0810027F9E7000000006A
:100F600000487047C87B002000487047E87B00209D
:100F700030B5B0F10A024FEA900E71F100034EEA6B
:100F8000817EB0EB0E0061EB91014FEA101E4EEA3C
:100F9000017E10EB0E0041EB11114FEA102E4EEACC
:100FA000016E10EB0E0041EB11214FEA104E4EEA9C
:100FB000014E10EB0E0041EB1141401841F10001D0
:100FC0004FEAD00040EA41704FEAD10110EB8005B2
:100FD0004FEA810444EA907444EB01046D1944EB38
:100FE0000404521BA3414FF0000348BF0A3200D54E
:100FF00030BD401C41F1000130BD10B50446FFF783
:1010000007FD0068005D00F0010010BD70472DE98C
:10101000FF4F0C461E464FF0FF378BB0D2E9000160
:10102000DDF860800A908A46C1F30A5505B93D464D
:10103000002108464FF00000BAF1000F00F4400014
:1010400005DA00EB80004FF4400101EA50004FEA5E
:101050009059B9F1010F00DDB9460A9850EA4A00EB
:101060000ED044F61050A5F2FF3545432F14B8F1C9
:10107000000F1ED07542291E1EDDC9F100021CE0C2
:10108000B8F1010F4FF0000001D0302103E0F2432E
:1010900005E02154401CB042FBDB30460022002119
:1010A00021540B99C1F80880C1E900200FB0BDE8B8
:1010B000F08FBD1B6D1CDEE74A4600DA694206A8C8
:1010C00000F06AFE06AB93E8070003AB83E8070075
:1010D00050460A9901F022F98DE80700A0F500506A
:1010E0001F3800900398002D09DD42F21F014A4687
:1010F000084403A90390684601F0ABFB08E0A0F5A3
:1011000000504A461F3803A90390684601F0C9FB06
:101110008DE807000004000C03D04FF0FF304108B9
:1011200000E01046B8F1000F03D0002200921546EF
:101130001EE0751E05D4FFF71BFF303262556D1E91
:10114000F9D5B3460122084302D000227F1C04E0F7
:101150002078302801D100227F1E002A099786D0EE
:101160001DE0112D07DAFFF703FF303262556D1CC9
:1011700050EA0102F5D1084302D00098C8B10EE050
:101180000021681E05E0235C625C63542254401E0B
:10119000491C8142F7DBAB46A81B401E099000208A
:1011A00004F80B000B98099AC0F80880C0E9002BDE
:1011B0007CE711264FF0000859E72DE9F04F8846EB
:1011C0000446D21D22F0070191B0D1E90001CDE91A
:1011D0000A0104F0AAFF02460B98C00F01D02D208F
:1011E00007E02068810701D52B2002E0202101EAD9
:1011F000C000032A099001D0072A05DB03464146B7
:10120000204600F037FB0BE12078800601D5E0692D
:1012100000E00620B8F1650F814606D0B8F1660FF0
:1012200018D0B8F1670F70D131E00020B9F1110F7B
:10123000009001DB112301E009F101030AAA01A9D1
:101240000CA8FFF7E4FEDDE90C70002609F10105AA
:10125000834647E001204B4600904FF000470AAA22
:1012600001A90CA8FFF7D3FEDDE90DB00C995D468E
:10127000002610B909F101000D18B9EB050003D4DF
:10128000C0F1FF3609F10105A5EB09002BE0B9F12A
:10129000010F01DA4FF001090020B9F1110F0090A0
:1012A000484601DD112300E003460AAA01A90CA863
:1012B000FFF7ADFEDDE90C704D4600268346207831
:1012C00000070AD4AB4500DA5D4601A8012D04DD14
:1012D000411911F8011C302907D04F4502DA17F1E6
:1012E000040F04DA012082460FE06D1EEEE7002FA6
:1012F00002DCED1B3E4403E0781CA84200DD7D1CAF
:10130000B81B00F1010A4FF000472078000703D412
:10131000AA4501DB4FF0FF3A0021B7F1004F0DF174
:1013200043088DF8431024D002202B23002F01DA2C
:101330007F422D230A21021EA0F1010000DC5FB1D3
:1013400097FBF1FC97FBF1F201FB1C7C17460CF1BB
:10135000300C08F801CDEEE7A8F1010003702188F8
:10136000090501D5452100E06521A0F1010800F83B
:10137000011C09980FA9A1EB0807FF1D00B101206E
:10138000411901EBEA70A1693844081A401EA061B6
:101390002078C00602D42046FEF7C4FF099828B181
:1013A000D4E901219047206A401C20622078C006C1
:1013B00022D52046FEF7B6FF1EE0002E04DBB34523
:1013C00002DD01A8805D00E03020D4E901219047D2
:1013D000206A401C2062761CAAF101005FEA000A24
:1013E0000AD1FFF7C1FDC0680168405CD4E9012162
:1013F0009047206A401C2062281EA5F10105DCDC14
:1014000007E0D4E9012118F8010B9047206A401C3D
:101410002062381EA7F10107F3DC2046FEF798FF93
:10142000032011B043E600002DE9F04F04460D46BD
:10143000D21D22F0070089B0D0E900924846174635
:10144000394604F072FE0246F80F01D02D2307E062
:101450002068810701D52B2302E0202101EAC00387
:101460008DF820300BB1012000E00020032A8246D5
:1014700001D0072A04DB2946204600F0FBF93DE1B4
:101480002078800601D40D2500E0E569C7F30A56EF
:101490000D2D49DA00214FEA175B08464FF0000096
:1014A000002F00F4400007DA00EB80004FF4400109
:1014B00000EBD07001EA60008115012901DD4FF0D9
:1014C000FF3100224FEA850CBCF1180F06D31346FA
:1014D000ACF118004FF08052C24003E04FF480138B
:1014E00023FA0CF30CF10C0CBCF1200F04D3ACF17B
:1014F000200C09FA0CF001E007FA0CF000294FF07B
:10150000004801DD18B90FE00ED140450CD319EBAE
:1015100002095F4121B9404502D19F4329EA0209EE
:10152000BBEB175F00D0761C2088000502D57B48F6
:10153000784402E079487844193808AA302302F840
:101540000A30037C0AF10101002E0AF1020A535409
:101550006A4602DC4FF0300101E04FF031014FF0FC
:1015600001088DF8001002D0A6F2FF3603E059EA18
:10157000470100D06A4E002D02DC2178090704D50E
:101580004FF002082E218DF80110C44600210BE017
:10159000C7F303433F01C35C491C6D1E02F80830CA
:1015A000052908F1010801DA002DF1DC00210CE029
:1015B00000EB1973491C1B786D1E082902F80830CE
:1015C0004FEA091908F1010801DA002DF0DC217851
:1015D000890602D514E0A8F10108E04505DD02EB1B
:1015E000080111F8011C3029F5D0B8F1000F07DD12
:1015F00002EB080111F8011C2E2901D1A8F1010804
:10160000002D05DD3E2102F808106D1E08F10108CD
:10161000407C002E02F8080008F1010804DA2D20B1
:10162000764202F8080002E02B2002F808000A21A6
:101630004FF47A70864208F101080BDB96FBF0F359
:10164000303302F8083096FBF0F308F1010800FB94
:10165000136601E0642E0CDB642096FBF0F330335C
:1016600002F8083096FBF0F308F1010800FB13665E
:1016700001E00A2E06DB96FBF1F0303002F808009C
:1016800008F1010896FBF1F001FB1060303002F820
:101690000800A16908F1010808EB050202EB0A0045
:1016A000081AA0612078C00602D42046FEF73AFE50
:1016B000216A08AE01EB0A00206204E0D4E90121AE
:1016C00016F8010B9047BAF1010AF7D22078C0064C
:1016D00002D52046FEF726FE6E4609E016F8010BFD
:1016E0003E280FD0D4E901219047206A401C206297
:1016F000B8F10108F2D22046FEF72AFE09B0032015
:10170000BDE8F08F206A2844206203E0D4E901217B
:10171000302090476D1EEBD3F8E70000B76A000059
:1017200002FCFFFF10B5436913B1AFF3008001E085
:10173000FFF736FA012010BD128800F124018284DF
:101740000022C2840122EDE711684FF0FF32E9E781
:101750003A2800D2303820F02002412A01D3A2F1E9
:101760003700884201D34FF0FF307047426842B1E2
:10177000016811F8013B23B1521EC0E9001218465E
:1017800070470121C160881E704742685AB1C36822
:10179000016843B983688B4205D0491E521CC0E9D9
:1017A0000012002070474FF0FF30704770B51646AA
:1017B0000C460546FFF72CF9036893F80101012850
:1017C00006D0FF2C0FD8185D68B101202C7070BDB9
:1017D000D3F807013246214603F207130344284693
:1017E000BDE8704018474FF0FF3070BD30B503467C
:1017F0001D781DB10A4603E0AC4201D1181A30BD74
:1018000012F8014B002CF7D15B1CF1E730B5034611
:101810001D783DB10A4612F8014B1CB1AC42FAD119
:101820005B1CF5E7181A30BD7546FFF799FBAE460D
:1018300005006946534620F00700854618B020B5DC
:10184000FEF728FDBDE820404FF000064FF00007EE
:101850004FF000084FF0000B21F00701AC46ACE858
:10186000C009ACE8C009ACE8C009ACE8C0098D46C5
:10187000704700002DE9F0411F4604460326016829
:10188000072A01F4006004DB08B116A505E016A5DF
:1018900003E008B115A500E015A521F010002060B7
:1018A000A069C01EA0610FB1401EA0612046FEF7D6
:1018B00039FD4FB1D4E9012138469047206A401CD8
:1018C0002062C01C206206E0206AFAE7D4E9012108
:1018D00015F8010B9047761EF8D22046FEF738FD2A
:1018E000BDE8F0814E414E006E616E00494E4600EB
:1018F000696E66002DE9FF4F064689B00878FF281B
:1019000006D0491C2D2805D000244FF0000908E01E
:1019100000200CE00124F8E709EB8903491C00EBE7
:1019200043090878FF28F7D114B1C9F100008146B6
:10193000107800252C46AA4629462D2801D02B28B0
:1019400004D1521C2D2813D0002082468B461078DB
:10195000FF280FD04FF0000C0A21521CA5FB017884
:1019600004FB018105FB0C11C5194BEB0104EEE7EB
:101970000120EAE7002108464FF00000BAF1000F0D
:1019800002D000EB80004008C0F38158B8F1010F8D
:1019900001DD4FF0FF380C9809EB000755EA040011
:1019A00009D04FF0020917F5FA7F0BDA4FEACA7037
:1019B000C6E900B012E04FEACA70C6E900B00DB047
:1019C000BDE8F08FB7F5FA7F0DDDF0487844D0E937
:1019D0000010C6E9001040EACA707060FFF720F8F6
:1019E000C0F80090EBE7391E02DAC8F1000200E00F
:1019F000424600DA794206A800F0CEF906AB93E839
:101A0000070003AB83E8070044F23E005BEA0401F1
:101A10000090584604D144F21E012C465D460091C8
:101A2000210C0904014306D10099240444EA154419
:101A30002D041039009104F07F41014306D1009933
:101A4000240244EA15642D020839009104F0704123
:101A5000014306D10099240144EA15742D01091FA0
:101A6000009104F04041014306D10099A40044EAEA
:101A70009574AD00891E009104F00041084304D123
:101A800000986D196441401E009042466846002F40
:101A9000CDE9014503A902DD00F017FF01E000F0E8
:101AA000ECFEBAF1000F04460D4601D084F000446C
:101AB00040F2FF7724F00040284303D0C4F30A50DB
:101AC000B84212D1FEF7ACFFC0F80090C4F30A5040
:101AD000B8420AD1AE487844D0E90010C6E90010F7
:101AE00004F000410843706069E7C6E9005466E706
:101AF0002DE9FF4F1F464FF0000A4FF0FF384546D3
:101B000091B0D7E90146CDF83CA0FFF72DFAC068A7
:101B10000168405C1090B96912986D1C8847396A59
:101B2000814688470028F6D1B9F1FF3F0AD0002E40
:101B300024F4D06411DDB9F12B0F08D0B9F12D0FC9
:101B40000BD102E0404615B03AE744F48064B9692D
:101B500012986D1C8847761E8146600504A901D540
:101B60002D2000E02B20002E01F1010B0DF130089B
:101B70008DF810003FDDB9F1690F08D0B9F1490FB8
:101B800005D0B9F16E0F02D0B9F14E0F1CD13B4612
:101B900001A8009580E85002DDE912126FF0020002
:101BA00006F0BDF9C11CCED10EE0B96912986D1CCA
:101BB000884781461398761E44F4007405600F9898
:101BC000401C002E0F9016DDB9F1300FEDD0B9F1A9
:101BD000780F02D0B9F1580F0DD10F9801280AD112
:101BE0003B46CDE90054DDE91212001F029606F0D3
:101BF00094F9C11CA7D1109989453ED144F08004C5
:101C000006E01399681CAAF1010A44F40074086004
:101C1000B9696D1C1298761E884730288146F0D02D
:101C20002BE01099894505D1200603D4761E44F097
:101C3000800418E0484604F002FB08B3761E0DF15C
:101C400023018B4544F4007408D2A9F130000BF84D
:101C5000010B200607D5AAF1010003E0200602D4FB
:101C60000AF101008246A00502D51399681C08609C
:101C7000B96912986D1C88478146002ED1DC53E06B
:101C8000002E51DDB9F1650F02D0B9F1450F4BD1EE
:101C9000A00549D5B9696D1C1298761E24F44074CC
:101CA0008847002E81460CDD2B2804D0B9F12D0F7A
:101CB00007D144F48074B96912986D1C8847761E68
:101CC0008146E00501D52D2100E02B2108F8011BFC
:101CD000CDF8008021E0761E0DF13901884544F4ED
:101CE00000740CD2A9F1300010F0FF0088F8000059
:101CF00002D10099884509D908F1010806E0E005FC
:101D000001D5244801E042F20F708246B969129869
:101D10006D1C8847814613980560002E04DD4846F7
:101D200004F08DFA0028D6D1F96912988847FF206F
:101D300053468BF8000088F8000000200A900B90B2
:101D400004AA0CA90AA8FFF7D5FDA00502D46FF0DC
:101D50000100F8E614F0240F0AD0E00714D1386827
:101D6000DDE90A12031D3B600068C0E900120BE0C8
:101D70000AA9684604F00CFAE00705D13868009A11
:101D8000011D3960006802602846DCE66C670000CF
:101D900062660000F1D8FFFF2DE9F0478146164644
:101DA0008AB0334878440DC88DE80D003048784437
:101DB000801C03AC0DC884E80D0041F69B3008443C
:101DC000372190FBF1F290FBF1F5A5F1800501FBC5
:101DD00012041B3C02D56442012000E00020DFF821
:101DE00090A080460027FA44AAF1BE0A0DE0E00761
:101DF00009D03246684607EB47010AEB810100F043
:101E000050FD8DE8070064107F1C002CEFD1184FA7
:101E10007F44AC3F18E0E80714D007EB04100DF145
:101E2000180A90E80E008AE80E00C068F04201D15E
:101E300098190890324606A903A800F032FD03ABBA
:101E400083E807006D10641C002DE4D1324669461A
:101E5000B8F1000F03A802D000F0FBFC01E000F095
:101E600020FDC9E90001C9F808200AB0BDE8F087E3
:101E7000D462000010B50446AFF300802046BDE8F0
:101E80001040FEF7F2B910B5FEF7CAFD006810BDAC
:101E900010B50446FEF7C4FD046010BD2DE9FF4FE8
:101EA0001F464FF03C0987B04FF00042DDE91410A7
:101EB00001F10108DDF858A002EA4050039000202B
:101EC00004908346054604460590B969461E089865
:101ED0008847AAF1010A0290BAF1000F37DD029893
:101EE0002E2815D01021FFF733FC00282ADB4FF0F5
:101EF000010B0499014316D0B9F1000F0BDB4A46E0
:101F0000C11700F0F7F905430C43A9F1040905E0F6
:101F10000120059007E008B145F00105012004907B
:101F2000059800B9361DB969089808F10108884775
:101F3000BBF1000FAAF1010A0290CDD00999C1F8B6
:101F40000080C9E70298702808D0502806D0F969A7
:101F500008988847BBF1000F14D04FE00020029092
:101F60000120BBF1000F049009D0B969089808F16D
:101F700001088847AAF10109B9F1000F07DCF969E6
:101F8000089888476FF001000BB0BDE8F08F2B2850
:101F900004D02D280CD14FF0FF300490B969089877
:101FA00008F101088847A9F10109B9F1000FE6DD40
:101FB000411CE4D00A21FFF7CBFB0028DFDB0299AC
:101FC00008F1010801EB810100EB41000290B969C1
:101FD000089888470A21FFF7BBFB099AA9F1010974
:101FE000B9F1000FC2F8008001DD0028E7DAF969D5
:101FF000089888470499029800FB016655EA040096
:1020000004D004F04041090002D006E0039898E0B3
:10201000A40044EA9574AD00B61E04F00041080027
:1020200002D16D196441761E159810F0240F03D06B
:102030004FF00B095C4803E04FF028096FF07D007A
:102040008246564507DAAAEB06018944B9F1410FE9
:1020500001DD4FF0410901200021A9F1010200F04A
:1020600049F9024628400B462140084301D001218E
:1020700000E00021501E029143F1FF312840214031
:10208000084301D0012000E000200299834651EA74
:102090000B014FD0002108464FF00000039900F4D7
:1020A000400039B100EB80004FF4400100EBD070EC
:1020B00001EA60008015012802DD4FF0FF3000E0EA
:1020C00013D0401C36D0029860B3BBF1000F0CD186
:1020D0004A460120002100F00DF928402140084324
:1020E00001D0012000E00020E0B101204A4600219B
:1020F00000F000F9034640190A4661412D1A8C414F
:1021000011D3B9F1400F09DD159810F0240F02D05A
:10211000AAF1340603E0AAF1170600E0761C0025B8
:102120004FF0004406E05B1E42F1FF3220EA030557
:1021300021EA0204CAF10100B04206DA1B49039801
:1021400008430190002000900EE0039AC4F3D321CD
:10215000E80A0A43164940EA44500A433146CDE9A9
:102160000002684604F060F8159810F0240F0BD0B8
:102170001598C00715D13868DDE90012031D3B60D2
:102180000068C0E900120CE002A8694604F000F8FB
:102190001598C00705D13868029A011D396000689A
:1021A00002604046F0E6000002FCFFFF0000F07F06
:1021B0000000F03F2DE9FF4F92461D4685B04FF0DD
:1021C0000041DDE9124BDDE914727F1E01EA4B503C
:1021D000414940F0FF4940EA0108002122F0200077
:1021E0004928049102D04E2828D04CE03BA001267B
:1021F00007C88DE80700A9690698641C88477F1EF8
:10220000014606D41DF8060018B121F020018142D4
:102210000BD0E96906988847032E34D0082E32D0B7
:102220006FF0010009B0BDE8F08F761C032E01D0DD
:10223000082EE0D1601CCAF80000DCE7A969069806
:10224000641C88477F1E2AD420F02000412826D114
:10225000A9690698641C88477F1E20D420F02000BE
:102260004E281CD1A9690698641C88477F1E48F433
:10227000002849F48009CAF8004001D4282806D073
:10228000E969069888475FEACB7012D022E0A96915
:102290000698641C88477F1E01D4002803DAE96988
:1022A00006988847BCE72928F1D1641CCAF8004089
:1022B000E9E71BF0240F07D028680499031D2B6061
:1022C0000068C0E9001805E02868021D2A6000685F
:1022D000C0F800902046A5E70000F07F494E46492F
:1022E0004E4954590000000001491820ABBEFEE7DA
:1022F00026000200B2F120030AD5C2F1200301FA40
:1023000002F120FA03F300FA02F041EA03017047F8
:1023100000FA03F14FF00000704770475FEA400C8D
:1023200008BF91F0000F4FEA8C234FEAC12243EA25
:1023300051514FEA1C5018BF00F5F0404FEA3000F1
:1023400018BF41F000415FEA6C5C00F02980BCF1ED
:10235000FF3F08BF40F080407047130C06BF1204D7
:102360004FF0100C4FF0000C130E04BF12020CF1D2
:10237000080C130F04BF12010CF1040C930F04BFDF
:1023800092000CF1020CD30F04BF52000CF1010CAF
:1023900011464FF00002A0F11F00A0EB0C007047A7
:1023A00011F0004F08BF704731F000413FF4D5AF46
:1023B0000B0C06BF09044FF0100C4FF0000C0B0E75
:1023C00004BF09020CF1080C0B0F04BF09010CF14A
:1023D000040C8B0F04BF89000CF1020CCB0F04BF5F
:1023E00049000CF1010CCCF12003A0EB0C0022FA07
:1023F00003F302FA0CF241EA030100F10100704715
:1024000020F07F4C80EA030023F07F47ACEB07030A
:1024100003F57C5300F0004003F1FF032DE98049F0
:102420004FEA154B09B44FEA144325EA0B4E24EA50
:1024300003480FF2042606EB132749083E785FEAAB
:10244000320203FB0667C7F5000707FB06F64FEAF3
:1024500054374FEAD64606F1020607FB066CCCF16C
:10246000005C4FEA1C472CEA074C07FB06F40CFB08
:1024700006F504EB15464FEA961634BF00204FF0E0
:1024800000404FEAD13706FB07FC4FEA1C4C0CFB1F
:102490000BF7D21B03FB0CF761EB07010CFB0EF7EC
:1024A000B0EB074072EB17420CFB08F734BFA2EB0E
:1024B0000742B2EB074261EB17414FEA0C444FEA87
:1024C000910706FB07FC4FEA1C4C0CFB0BF7B0EB2B
:1024D000C74072EB573203FB0CF734BFA2EBC74285
:1024E000B2EBC74261EB57310CFB0EF7B0EBC70004
:1024F00072EB57720CFB08F734BFA2EBC702B2EBCA
:10250000C70261EB5771039F4FEA816141EA921163
:1025100004EBCC044FEAD1374FEA826206FB07FC9A
:1025200042EA90124FEA80604FEA1C4C0CFB0BF71A
:10253000D21B03FB0CF761EB07010CFB0EF7B0EBB2
:10254000074072EB17420CFB08F734BFA2EB0742BF
:10255000B2EB074261EB17414FEA8C554FEA910706
:1025600004EB9C2406FB07FC4FEA1C4C0CFB0BF70E
:10257000B0EBC74072EB573203FB0CF734BFA2EB52
:10258000C742B2EBC74261EB57310CFB0EF7B0EB21
:10259000C70072EB57720CFB08F734BFA2EBC702FF
:1025A000B2EBC70261EB577115EB4C254FEA816125
:1025B00041EA92114FEA82624FEAD13742EA901221
:1025C00006FB07FC44F100044FEA80604FEA1C4C14
:1025D0000CFB0BF7D21B03FB0CF761EB07010CFBA9
:1025E0000EF7B0EB074072EB17420CFB08F734BF55
:1025F000A2EB0742B2EB074261EB174115EB1C154A
:102600004FEA813141EA92414FEA823242EA9042F6
:102610004FEA80304FEA0C7644F1000448EA034365
:102620004EEA0B484FF0000EB2EB080C71EB0307BB
:1026300024BF624639464EEB0E0E4FF0000B0018D9
:10264000524149414BEB0B0BB2EB080C71EB03070A
:102650007BF1000B24BF624639464EEB0E0E4FF065
:10266000000B0018524149414BEB0B0BB2EB080C2D
:1026700071EB03077BF1000B24BF624639464EEB3A
:102680000E0E51EA020718BF46F0010616EB0E7651
:1026900055F1000254F1000103D5BDE88901BDE800
:1026A0000088BDE88901BDE80048B619524141EBF8
:1026B0000101A3F10103704780807F7E7D7C7B7ADE
:1026C0007978777676757473727171706F6E6E6DDE
:1026D0006C6C6B6A6A696868676666656464636384
:1026E00062616160605F5F5E5E5D5D5C5C5B5B5A0A
:1026F0005A59595858575756565555555454535377
:1027000052525251515050504F4F4F4E4E4D4D4DD1
:102710004C4C4C4B4B4B4A4A4A494949484848471C
:10272000474747464646454545444444444343435A
:10273000434242424241414146EA0646A3F57053B4
:102740004FEA164646EA42564FEAD22242EA415240
:1027500010B54FEAD121A3F1010300F017F820F0E2
:10276000004000F1010C00F0004701EB0050114661
:10277000BCF5006F40EA070000D210BD02484FF0E0
:10278000000140EA070010BD0000F07F002B26D4B6
:10279000770021D01CB54FEA370703B44FF0100083
:1027A0004FF010014FF000000FBCBDE810400BF1DE
:1027B000010BBBF1010F08BF5FEA170722BF12F13F
:1027C000010211F101014FF0004143F1000300F05B
:1027D000004043EA00007047F9D35708DAE746EAB9
:1027E000064613F1400F4FEA16461FDD13F1200F86
:1027F000DFBF16430A46002120335B42C8D0C3F135
:10280000200746EA064602FA07F74FEA164646EA66
:102810000706C3F1200722FA03F201FA07F721FAAB
:1028200003F14FF0000342EA0702B1E746EA02066D
:1028300046EA06464FEA164646EA0106BCBF46EAA5
:102840000646360C4FF000034FF000024FF0000137
:102850009EE72DE9C048934630B491E8380007C898
:1028600031EA400C48BF34EA430C03D5FFF7C8FDFA
:10287000FFF78CFFF0BCBDE800882DE9C048934607
:1028800030B491E8380007C831EA400C48BF34EA58
:10289000430C03D5FFF7B4FDFFF74EFFF0BCBDE8D6
:1028A00000882DE9C048934630B491E8380007C845
:1028B00010F0804F08BF13F0804F03D100F019F8DB
:1028C000FFF764FFF0BCBDE800882DE9C0489346DF
:1028D00030B491E8380007C810F0804F08BF13F0FB
:1028E000804F03D100F005F8FFF726FFF0BCBDE8EC
:1028F000008820F07F4780EA030023F07F4C07EB3D
:102900000C03A3F57C5300F00040A3F1FE0392F00A
:10291000000F00F0B38095F0000F00F077802DE9F4
:1029200001494FEA11404FEA144621EA004800FBF2
:1029300006FC24EA064708FB06F607FB08F800FB3E
:1029400007F718EB06484CEB164C4FEA124B18EB06
:1029500007484FEA15464CEB174022EA0B4E0BFB9B
:1029600006FC25EA06470EFB06F607FB0EFE0BFBF0
:1029700007F71EEB064E4CEB164C4FF000061EEB15
:10298000074E4CEB174B18EB0B0840F1000018EB0F
:102990000E0B58EB000840F100008F1A4FF00001B9
:1029A0003CBFC943661B14BFB5EB040C00213CBF00
:1029B000C943F61B4FEA17444EEA8E0E27EA044538
:1029C0004FEA1C4704FB07622CEA074C05FB07F79C
:1029D0000CFB05F604FB0CFC16EB074642EB17421A
:1029E00016EB0C4642EB1C421BEB060658EB0202B0
:1029F000414146EA9E0601D5BDE80189B61952411A
:102A000041EB0101A3F10103BDE801894FEA14453F
:102A10004FEA114724EA054621EA074C05FB07F473
:102A200006FB07F70CFB06F105FB0CFC11EB07415D
:102A300044EB17444FEA124711EB0C4144EB1C44A2
:102A400022EA074C05FB07F206FB07F70CFB06F62C
:102A500005FB0CFC16EB074642EB174216EB0C4647
:102A600042EB1C456A1854F1000148BF7047B61983
:102A7000524141EB0101A3F10103704795F0000FB2
:102A800037D04FEA11424FEA144721EA024624EABE
:102A9000074C02FB07F106FB07F70CFB06F402FBF1
:102AA0000CFC14EB074441EB17414FEA154714EBBC
:102AB0000C4441EB1C4125EA074C02FB07F506FBE1
:102AC00007F70CFB06F602FB0CFC16EB074645EB82
:102AD000174516EB0C4645EB1C42121951F100014B
:102AE00048BF7047B619524141EB0101A3F1010300
:102AF00070474FEA14454FEA114724EA054621EA98
:102B0000074C05FB07F106FB07F70CFB06F24FF03D
:102B1000000605FB0CFC12EB074241EB174112EBE0
:102B20000C4251EB1C4148BF7047921841EB010128
:102B3000A3F101037047000070B504460068816886
:102B4000C943C90717D1816821F00101816000F0F4
:102B50004BFD05460AE000BF00F046FD401B022881
:102B600004D920688068C043C00706D02068806808
:102B7000C043C007F0D0002070BDA06A40F0100034
:102B8000A062E06A40F00100E062012070BDFEE753
:102B9000014800F04FBA0000847B0020014800F09B
:102BA00049BA0000B87A0020014800F043BA00009A
:102BB000FC7A0020014800F03DBA0000407B002074
:102BC00030B590F840500124AC40C56B6C6004688F
:102BD00063604368102B036803D099600068C2608B
:102BE00030BD9A600068C16030BD70474FF400602E
:102BF00000F0E4BB042000F0E1BB72B6FEE7000089
:102C0000F8B50024009490F824202546012A12D01B
:102C1000012280F824204A681F23072A0DD2066863
:102C2000776B521E02EB820293409F430B689340E6
:102C30001F43776319E00220F8BD06680D2A0AD207
:102C4000376BD21F02EB820293409F430B68934085
:102C50001F43376309E0F76A0D3A02EB82029340A3
:102C60009F430B6893401F43F7620A680723066877
:102C70000A2A0AD3F7680A3A02EB420293409F43BA
:102C80008B6893401F43F76008E0376902EB42020C
:102C900093409F438B6893401F4337610A68102A13
:102CA00001D0112A20D1124B02689A4217D19368A1
:102CB0001B0219D4936843F4000393600968102938
:102CC00012D10C490C4A0968B1FBF2F101EB810108
:102CD000490000E0491E00910029FBD104E0816A0F
:102CE00041F020018162012480F824502046F8BD83
:102CF000002401403C00002040420F002DE9F0413B
:102D000004004FF0000514D0A06A002628B9E6623E
:102D100084F82460204600F083F82046FFF70CFF7B
:102D2000A16A01F01001014304D0A06A40F0100034
:102D3000A0626BE0A16A21F4885141F00201A16216
:102D4000334923688B42E16904D1B1F5402F01D1A9
:102D50004FF40021277B4FF4807C41EA47026168F1
:102D60000A43A168614509D0012907D05FF000013D
:102D700094F814E0BEF1010F02D00AE06146F7E7D3
:102D8000C7B1A76A47F02007A762E76A47F00107C3
:102D9000E7625F6827F469470F435F6023689968BB
:102DA0001C4F394011439960A16861450BD001293E
:102DB00009D00CE0DFF860E0A7690EEB47370F435E
:102DC00047F40061E5E7218A0D05A5F58015216826
:102DD000CB6A23F470032B43CB62216889680F4BC5
:102DE0001940914208D1E662A16A21F0020141F046
:102DF0000101A162BDE8F081A06A20F0020040F06C
:102E00001000A062E06A40F00100E0620120F1E7FA
:102E1000003C0140FDF7E1FF00E0FFFFFE0E1FFF59
:102E200010B586B0002100910191029103910068D4
:102E30001D49884235D11D48816941F40071816185
:102E4000816901F400710491816941F0040181619B
:102E5000816901F004010491816941F010018161EF
:102E6000816901F010010491816941F008018161DB
:102E70008069032400F0080004900220CDE90004DA
:102E800069460B4800F0A6FA3020CDE900046946F7
:102E9000084800F09FFA009469460748019400F042
:102EA00099FA06B010BD0000002401400010024055
:102EB0000008014000100140000C014010B590F8DE
:102EC00021100022022905D00421816380F82020EE
:102ED000012010BD01680B6823F00E030B60016830
:102EE0000B6823F001030B6090F84030C46B0121A4
:102EF00001FA03F3636080F8211080F82020104667
:102F000010BD00002DE9F05F90F821100024022987
:102F100003D004218163012485E001680A6822F05E
:102F20000E020A6001680A6822F001020A603F4E40
:102F30003E4FB215DFF8F4C0DFF8F090DFF8ECA0F8
:102F4000DFF8E8B0DFF8E4E00168783F130115022C
:102F5000ACF1640CA9F15009AAF13C0AABF1280BC1
:102F6000AEF1140E4FF48018B14227D9B9420ED0F9
:102F7000614512D049451DD0514518D0594518D04A
:102F8000714501D1424615E0294EB14201D10122DD
:102F900010E0274E1436B14201D110220AE0244E2F
:102FA0002836B14206D0224A3C32914201D11A461B
:102FB00000E02A461E49091F0A602BE0B94213D0DF
:102FC000614517D0494522D051451DD059451DD0E6
:102FD000714501D142461AE0B14202D14FF08072F0
:102FE00015E0134EB14201D1012210E0104E14360B
:102FF000B14201D110220AE00D4E2836B14206D06E
:103000000B4A3C32914201D11A4600E02A46074958
:1030100080394A60012180F82110002180F82010B9
:10302000416B01B188472046BDE8F09F8000024017
:10303000080402402DE9F05FC16B0A6801680B6863
:10304000046C4FF0040808FA04F8844D844E854F50
:10305000DFF814C2DFF81492DFF814A2DFF814B21C
:10306000DFF814E218EA020F65D05FEA437862D510
:103070000A68920603D40A6822F004020A60DFF8A4
:10308000F0814FF48062016808F114081301140202
:10309000414524D9A9420DD0B1420FD0B9421AD02E
:1030A000614515D0494515D0514501D1120312E0B3
:1030B000594501D104220EE0714501D140220AE0B8
:1030C0006D4D1435A94206D06B4A2832914201D188
:1030D0001A4600E022466749091F0A6029E0A94212
:1030E00013D0B14215D0B94220D061451BD049451B
:1030F0001BD0514502D14FF4800217E0414502D167
:103100004FF0806212E0594501D104220EE0714572
:1031100001D140220AE0584D1435A94206D0564A42
:103120002832914201D11A4600E022464B49083923
:103130004A60C16A71E04FF0020808FA04F818EA20
:10314000020F70D05FEA83786DD50A68920606D4C4
:103150000A6822F00A020A60012180F82110DFF8D3
:1031600010814FF40072016808F114081301140271
:10317000414524D9A9420DD0B1420FD0B9421AD04D
:10318000614515D0494515D0514501D1120312E0D2
:10319000594501D102220EE0714501D120220AE0F9
:1031A000354D1435A94206D0334A2832914201D117
:1031B0001A4600E022462F49091F0A6029E0A94269
:1031C00013D0B14215D0B94220D061451BD049453A
:1031D0001BD0514502D14FF4001217E0414502D1F6
:1031E0004FF0007212E0594501D102220EE0714504
:1031F00001D120220AE0204D1435A94206D01E4AF2
:103200002832914201D11A4600E02246134908397A
:103210004A60002180F82010816A00291CD0BDE896
:10322000F05F0847FFE70825A540154214D01A07AC
:1032300012D50A6822F00E020A6090F84020C36B93
:10324000012101FA02F25A60816380F82110002105
:1032500080F82010016BE0E7BDE8F09F0800024015
:103260001C0002403000024044000240580002406E
:103270006C000240080402401C04024030B560B1FA
:103280001A4B026814219A4209D2194B1344B3FB1A
:10329000F1F18900016417490AE0012030BD134BA8
:1032A0005B421344B3FBF1F1890001640F49083913
:1032B000C163022180F82110136843F6F0718B433B
:1032C000F0E901142143D0E902452C43214304696C
:1032D000214344692143846921431943116000213A
:1032E0004163012242770177084630BD080402405D
:1032F000F8FFFDBF0000024070B5044690F82000C2
:10330000002501280CD0012084F8200094F82160C9
:103310000020012E06D084F820000225284670BD2A
:10332000022070BD022684F82160A0632068066830
:1033300026F0010606602046FFF742FCE06A0028FE
:103340002068016802D041F00E0106E021F004017E
:1033500001602068016841F00A010160206801688D
:1033600041F001010160D9E770B5044600F03CF975
:103370000546601C02D004480078044400F034F98B
:10338000401BA042FAD370BD300000200949B0F5BF
:10339000006F07D0042804D18888401C8880012051
:1033A0008871704704484268521C42600888401C7B
:1033B00008807047D43F002000000020044910B569
:1033C0000A68024202D00860FFF7E0FF10BD00006B
:1033D000140401402DE9F84FDFF8C891002409F1E9
:1033E000040A0AF1040B23460F270BF1040ED1E067
:1033F0000125A54006EA0502AA4276D1DFF8A8C158
:103400004E68A6EB0C0866452BD00DDC032E34D09D
:1034100005DC36B3012E19D0022E2FD11BE0112E60
:1034200016D0122E2AD119E0B8F5881F19D006DC63
:10343000B8F5803F15D0B8F5801F1FD111E0B8F561
:10344000001F0ED0B8F5041F18D10AE0CB6815E0B4
:10345000CB681B1D12E0CB6808330FE0CB680C3340
:103460000CE08B682BB1012B4FF0080303D04561B2
:1034700004E0042302E0056100E00023FF2A01D8F4
:10348000064601E000F104064FEA840501D9A5F1E2
:103490002005D6F8008007FA05FC28EA0C0803FA94
:1034A00005F548EA0508C6F800804D68ED0070D5BE
:1034B0003E4DAE6946F00106AE61AD6924F00306EB
:1034C00005F0010500953A4D06EB050CDCF80850B7
:1034D000A607360F07FA06F825EA0805DFF8D480B4
:1034E000404503D14FF0000825E052E0DFF8C880E6
:1034F000404502D14FF001081DE0DFF8C080404593
:1035000002D14FF0020816E0DFF8B480404502D146
:103510004FF003080FE0DFF8AC80404502D14FF0D8
:10352000040808E0DFF8A080404502D14FF005080C
:1035300001E04FF0060808FA06F848EA0508CCF85A
:1035400008804D68D9F80060ED034D4601D516435B
:1035500000E096432E604D68DAF80060AD035546F2
:1035600001D5164300E096432E604D68DBF80060FD
:10357000ED025D4601D5164300E096432E604D688E
:10358000DEF80060AD02754601D5164300E09643B3
:103590002E60641C0A681646E2407FF429AFBDE83D
:1035A000F88F0000000401400000111000100240DC
:1035B0000000014000080140000C014000100140E3
:1035C0000014014000180140001C0140C26821EABB
:1035D00002030A4043EA0241016170470AB10161F6
:1035E00070470904FBE7000001488068704700004D
:1035F0003000002070B5040025D094F83D0000256F
:1036000020B984F83C50204600F0B8F8242084F813
:103610003D002068016821F0010101602068016817
:1036200041F4004101602068016821F4004101601B
:1036300000F0F8FA4D4A6168914201D84C4900E027
:103640004C49884201D2012070BD4B492368B0FB30
:10365000F1F15E6826F03F060E435E6063689342B8
:1036600006D94FF4967359434FF47A73B1FBF3F1D3
:103670002368491C1E6A26F03F06314319626168BF
:10368000914210D84900401EB0FBF1F2521CC2F327
:103690000B02042A01D2042022E0B0FBF1F0401C0E
:1036A000C0F30B001CE0A268F2B301EBC10303EB13
:1036B0000116431EB3FBF6F35B1C43F480431B056A
:1036C00049D092B301EBC10202EB0111401EB0FBE5
:1036D000F1F0401CC0F30B0040F4804040F4004087
:1036E0002168CA694CF6FF739A431043C861D4E954
:1036F000071001432068026822F0C00211430160F4
:10370000D4E9030101432068826848F2FF339A43F9
:1037100011438160D4E9050108432168CA6822F099
:10372000FF021043C86001E00EE016E02068016867
:1037300041F0010101602564202084F83D002563EB
:1037400084F83E50002070BD01EB4106431EB3FBE0
:10375000F6F35B1CB3E70120C2E701EB4101401E19
:10376000B0FBF1F0401CC0F30B00B7E7A0860100EE
:1037700080841E0000093D0040420F0010B586B055
:103780000021009101910291039100681349884240
:1037900022D1134CA06940F00800A061A0696946DD
:1037A00000F0080004904FF4407000901220019047
:1037B000032003900B48FFF70DFE0B48416841F0D2
:1037C000E06141F002014160E06940F40010E06115
:1037D000E06900F40010049006B010BD00540040F1
:1037E00000100240000C01400000014002488168C6
:1037F000027811448160704730000020074810B5FE
:10380000016841F010010160032000F075F80F20FD
:1038100000F006F800F024F8002010BD002002405F
:1038200070B50D4D04464FF47A712878B1FBF0F075
:103830000A490968B1FBF0F001F02DF948B9102CE4
:1038400007D200222146501E00F036F800206C609E
:1038500070BD012070BD0000300000203C00002041
:103860000C4808B5816941F001018161816901F06D
:1038700001010091C16941F08051C161C06900F04E
:10388000805000900448416821F0E06141F00071EF
:10389000416008BD0010024000000140002809DB23
:1038A00000F01F02012191404009800000F1E0205A
:1038B000C0F8001170470000F0B40E4B1B680C46B6
:1038C000C3F30223C3F10705042D00D90425191DF4
:1038D000072901D2002300E0DB1E012606FA05F1CC
:1038E000491E214099409E40761E16403143F0BC4F
:1038F00002F02FBC0CED00E0064900F0070208685A
:103900004FF6FF03184040EA0220034A10430860C4
:10391000704700000CED00E00000FA0501490120AD
:103920000862704700000E4210B52CA401461DCC61
:1039300086B08DE81D002DA02D4C0068049000205D
:1039400004292FD00BDC01292FD0022928D100F027
:1039500079F96168C1F38131491C49001EE00829E9
:1039600020D010291CD161682268D20118D5C1F37A
:103970008342C9031DF8020009D5616804AAC1F396
:103980004041515C1B4AB2FBF1F1484301E01A4946
:1039900048436168490203D440000321B0FBF1F0C1
:1039A00006B010BD00F05EF9FAE7226AC2F3012109
:1039B000012903D1920701D5C803F1E7022905D1F6
:1039C000626A920702D549F64040E9E70329E7D148
:1039D00021688903E4D54FF22440E1E7020304059E
:1039E000060708090A0B0C0D0E0F1010010200004B
:1039F0000010024000127A0000093D002DE9F84352
:103A000005460078354CC00754D0E0690026C00058
:103A100008D4E06940F08050E061E069012600F0E0
:103A2000805000902E480168C90512D40168804674
:103A300041F480710160FFF7D7FD074605E000BF44
:103A4000FFF7D2FDC01B642823D8D8F80000C005BA
:103A5000F6D5206A10F4407021D0A98801F4407195
:103A600081421CD0206A1F49012220F440700A6064
:103A700000220A602062C00711D0FFF7B5FD07469B
:103A80004FF4803808E000BFFFF7AEFDC01B404593
:103A900002D30320BDE8F883206A8007F4D5206AAA
:103AA000696820F44070084320621EB1E06920F08C
:103AB0008050E0612878800705D56068A96820F407
:103AC0004040084360602878C00605D56068696991
:103AD00020F48000084360600020DBE70010024013
:103AE0000070004040044242704700002DE9F0475A
:103AF0000F46050061D0434E306800F00700B84221
:103B000009D2306820F0070038433060306800F098
:103B10000700B84251D128683B4C810712D54007B5
:103B200003D5606840F4E06060602878000703D542
:103B3000606840F4605060606068A96820F0F00040
:103B4000084360602878C00728D06868012810D032
:103B50002168022810D0890700292EDA616821F037
:103B6000030101436160FFF73FFD804641F2883960
:103B70000DE021688903EFE78901EDE7FFF734FDE8
:103B8000A0EB0801494502D90320BDE8F087606831
:103B9000696800F00C00B0EB810FEFD1306800F0E5
:103BA0000700B8420BD9306820F007003843306076
:103BB000306800F00700B84201D00120E5E728781E
:103BC000400705D56068E96820F4E060084360605C
:103BD0002878000706D56068296920F4605040EA1B
:103BE000C100606000F03EF86168084AC1F303114B
:103BF000515CC8400649086006480068FFF710FE9F
:103C00000020C2E70020024000100240727F00083E
:103C10003C0000203400002001490120C8647047A6
:103C2000000042420448054900684968044AC1F35B
:103C30000221515CC84070473C0000200010024047
:103C4000827F00080448054900684968044AC1F3B6
:103C5000C221515CC84070473C0000200010024067
:103C6000827F000812A185B00FC98DE80F0014A053
:103C7000144A006804905168134801F00C03042BA7
:103C800010D0082B0ED1C1F38343C9031DF80300E4
:103C90000AD5516804AAC1F34041515C0A4A504315
:103CA000B0FBF1F005B0704708494843FAE700005F
:103CB00002030405060708090A0B0C0D0E0F10106D
:103CC000010200000010024000127A0000093D00CD
:103CD00010B5044CA068000603D5FFF705FF80204F
:103CE000A07210BD001002402DE9F84F040072D000
:103CF0002078BE4DC0074FF4803949D06868C0F3C2
:103D00008100012807D06868C0F38100022809D12A
:103D10006868C00306D52868800339D56068002824
:103D2000E5D035E060684E46B04203D1286840F4E3
:103D300080300AE010B1B0F5A02F0DD0286820F433
:103D400080302860286820F480202860606890B166
:103D5000FFF74AFC07460AE0286840F48020286004
:103D6000E4E700BFFFF740FCC01BB04273D22868F5
:103D70008003F7D50CE0FFF737FC074605E000BFEE
:103D8000FFF732FCC01BB042F0D228688003F7D4A2
:103D90002078974E80074FF0010A4FF0000839D580
:103DA000686810F00C0F07D06868C0F38100022823
:103DB00009D16868C00306D42868800714D5206933
:103DC000012808D110E02069B0B1C6F800A0FFF7C3
:103DD0000BFC074605E004E1FFF706FCC01B0228C8
:103DE00039D828688007F7D52868616920F0F8007D
:103DF00040EAC10028600DE0C6F80080FFF7F4FB40
:103E0000074604E0FFF7F0FBC01B022823D8286810
:103E10008007F7D4207800072CD57648A169D9B15E
:103E2000C0F800A0FFF7E0FB074604E0FFF7DCFB6B
:103E3000C01B02280FD8686A8007F7D56E484FF478
:103E4000FA510068B0FBF1F0009000BF0098411EED
:103E50000091FAD20EE07CE0C0F80080FFF7C4FBCE
:103E6000074604E0FFF7C0FBC01B022871D8686A50
:103E70008007F7D4207840075CD5E8690027C000A8
:103E800008D4E86940F08050E861E869012700F053
:103E90008050009059480168C90511D4016841F467
:103EA00080710160FFF7A0FB834605E0FFF79CFBF4
:103EB000A0EB0B0064284CD850480068C005F5D52D
:103EC000E06801280AD008B1052811D0286A20F03E
:103ED00001002862286A20F0040002E0286A40F00D
:103EE00001002862E06898B1FFF77EFB83460BE093
:103EF000286A40F004002862F0E700BFFFF774FB77
:103F0000A0EB0B00484558D2286A8007F6D50CE094
:103F1000FFF76AFB834605E0FFF766FBA0EB0B00AB
:103F200048454AD2286A8007F6D41FB1E86920F0D4
:103F30008050E861E06980B36968C1F381010229BA
:103F400042D00228C6F8608004D0FFF74DFB04463B
:103F500036E032E0FFF748FB074604E0FFF744FB9A
:103F6000C01B022829D828688001F7D4206A484558
:103F700005D16868A16820F4003008436860D4E97E
:103F800008010843696821F4741108436860C6F8A1
:103F900060A0FFF729FB044605E024E0FFF724FBBF
:103FA000001B022809D828688001F7D51BE000BF54
:103FB000FFF71AFB001B022802D90320BDE8F88F87
:103FC00028688001F4D40EE00128F7D06868226ADE
:103FD00000F48031914204D1616A00F4701088428B
:103FE00001D00120EAE70020E8E7000000100240CD
:103FF00000004242800442423C0000200070004029
:10400000024850F8210080B270470000006C004068
:10401000024800EB810091B201607047006C0040E3
:104020007047704710B5044600680168C90717D08B
:104030004168C90714D040684007204607D5FFF7FC
:10404000F0FF21686FF004004860042002E0FFF7F1
:10405000E7FF012060742068416821F001014160A0
:1040600010BDF8B505004FF0000016460C46009054
:1040700006D02CB100226946284600F019F808B194
:104080000120F8BD287B2070E87BE070697B6170BF
:10409000A97BA17056B101F0FDFBE070607801F0E2
:1040A000F9FB6070A07801F0F5FBA0700020F8BD6E
:1040B0002DE9F04791460C465FEA00084AD084B3E8
:1040C000D8F800004068400744D4404601F087FC1F
:1040D0004FF461620546B0FBF2F1B0FBF2F302FB74
:1040E00013503C23B0FBF3F0B5FBF2F6607002FB1B
:1040F0001650B0FBF3F203FB1200A070182931D365
:104100001820B1FBF0F7B1FBF0F200FB12102070A9
:10411000404601F05DFC411C04D0A84202D9461B78
:1041200002E017E04FF0FF36A7EB071000EB40006E
:10413000C0EB001005EBC0152946404601F09EFC7F
:1041400040B9701C01D0711900E03146404601F0C1
:1041500081FC10B10120BDE8F0873946404601F0EE
:10416000A4FB00E02170B9F1000F0BD0207801F022
:1041700091FB2070607801F08DFB6070A07801F0F9
:1041800089FBA0700020E6E710B5044619B10022B3
:104190000648FFF78DFF002C06D02146BDE81040F1
:1041A00000220248FFF75DBF10BD0000343200203E
:1041B00070B5040003D0607C002610B105E001203A
:1041C00070BD2674204600F043F80220607420463B
:1041D00000F02EF9042578BB204601F0BDFB58BB4A
:1041E0002068416821F007014160A06820B11748AC
:1041F000016821F0010101601448001F0168A268F4
:1042000021F46071114301606068411C04D10120F8
:10421000FFF78AFB80B1401E21688A6822F00F02F6
:1042200042EA10428A602168CA6860F30F02CA60DD
:10423000204601F0ABFB08B16574C0E7E6730120CE
:104240006073A0736074002070BD0000306C00408B
:1042500008B500680D49884217D1FFF75FFB0C488D
:10426000C16941F00061C161C0690A4900F00060A4
:10427000009001200860002211460320FFF71CFB7C
:10428000BDE808400320FFF709BB08BD0028004037
:10429000001002403C0442422DE9F0410D4604006A
:1042A0003BD0C5B3207C01283AD04FF0010884F8F8
:1042B000108002206074E87872B301F0E2FAE073D3
:1042C000687801F0DEFA6073A87801F0DAFAA0737A
:1042D000C2B2617BE07B01F092FB20732870204624
:1042E00001F07DFB4FF46161B0FBF1F1002518296D
:1042F0002DD91822B1FBF2F1A1EB011101EB410123
:10430000C1EB011100EBC1163146204601F0B6FBAE
:104310000427C8B90BE000E004E00120BDE8F0810B
:104320000220FBE7E07368786073A878CFE7204647
:1043300001F04EFB411C0AD0B04208D206490144AC
:10434000204601F087FB10B167742574E5E784F817
:10435000118025740020E1E7805101002DE9F04132
:104360000D46040024D01DB3207C012823D04FF03B
:10437000010884F81080022060742878EAB101F006
:1043800080FA4FF4616100FB01F6687801F079FA78
:10439000C0EB001006EB8006A87801F072FA351821
:1043A0002946204601F06AFB0026042710BB0FE0D7
:1043B0000120BDE8F0810220FBE74FF46161484332
:1043C0006978C1EB011100EB8100A9784518E7E796
:1043D0002068416821F005014160204601F0F8FAAB
:1043E000411C0AD0A84208D206490144204601F0E7
:1043F00031FB10B167742674DAE784F811802674F3
:104400000020D6E78051010010B5044619B1002202
:104410000648FFF7A3FF002C06D02146BDE8104058
:1044200000220248FFF738BF10BD000034320020E0
:1044300070B504000AD02068416821F0080141608D
:10444000FFF7D2F805464FF47A7608E0012070BDF8
:10445000FFF7CAF8401BB04201D9032070BD2068A5
:1044600040680007F4D5002070BD70B5040009D085
:10447000606A002540B125616561A56294F851002C
:1044800040B10CE0012070BD6068B0F5827FF4D0CF
:10449000E561F2E784F85050204600F03FF8022032
:1044A00084F851002068016821F040010160A08873
:1044B000218900F4827001F404410843A18901F4C8
:1044C00000610843217C01F002010843217D01F0D5
:1044D00001010843218B01F400710843217F01F0A1
:1044E0003801084394F8201001F080010843218D21
:1044F00001F40051084321680860A069042101EA21
:104500001040216848602068C16921F40061C161E0
:104510006565012084F85100002070BD70B586B03B
:10452000002400940194029403942D4B02682D49B9
:10453000022503262C489A421ED18A6942F48052F1
:104540008A618A6902F4805204928A6942F0040204
:104550008A618969039601F004010491A021CDE9E3
:10456000001569460546FEF735FF4020CDE90004F9
:104570006946284602942EE01C4B9A422DD1CA6906
:1045800042F40042CA61CA6902F4004204928A6994
:1045900042F004028A618A6902F0040204928A6984
:1045A00042F008028A61896901F008010491D91377
:1045B00000916946FEF70EFF2820CDE90004029421
:1045C0000B4C69462046FEF705FF1020CDE900059B
:1045D000694603962046FEF7FDFE06B070BD00005A
:1045E000003001400010024000080140003C004043
:1045F000000C01402DE9F84F04464068002598461C
:1046000016460F464FF0040BB0F5827F01D1A0682B
:1046100088B194F85000012818D0012084F8500087
:10462000FEF7E2FF814694F851004FF0000A01289E
:104630000ED0022582E084F851B013460A46204687
:10464000CDF8008000F036F9BDE8F88F0220FBE7D6
:10465000002F72D0002E70D084F851B0C4F854A04E
:10466000A763A687E687C4F830A0A4F834A0A4F80E
:1046700036A0C4F840A0C4F844A0A068B0F5004F2C
:1046800009D12068016821F04001016020680168BB
:1046900021F48041016020680168490603D4016863
:1046A00041F040010160E068D8B139E020688168DC
:1046B000C90709D0007BA16B0870A06B401CA063E8
:1046C000E08F401EE0870CE0FEF78EFFA0EB0901B3
:1046D000414503D3B8F1FF3F03D036E0B8F1000FF6
:1046E00033D0E08F0028E1D11DE020688168C90740
:1046F00009D0C068A16B0880A06B801CA063E08F0C
:10470000401EE0870CE0FEF76FFFA0EB090141457A
:1047100003D3B8F1FF3F03D017E0B8F1000F14D076
:10472000E08F0028E1D14A464146204601F0BAF91F
:1047300008B120206065606D00B10125012084F87A
:10474000510084F850A028467EE70325F6E72DE9BE
:10475000F84F044690F8500000271D46164689463B
:1047600001280DD04FF0010B84F850B0FEF73CFF4C
:10477000804694F85100BA46012804D0022793E0FD
:104780000220BDE8F88FB9F1000F73D0002E71D070
:10479000032084F85100C4F854A0C4F83090A686D1
:1047A000E686C4F838A0A4F83CA0A4F83EA0C4F85B
:1047B00044A0C4F840A0A068B0F5004F09D120681B
:1047C000016821F0400101602068016841F48041E6
:1047D000016020680168490603D4016841F0400186
:1047E0000160E068B0F5006F606803D030B3012E5F
:1047F00024D041E008B1012E1CD1206B2168008833
:10480000C86006E020688168890709D5216B09889E
:10481000C160206B801C2063E08E401EE08609E0B2
:10482000FEF7E2FEA0EB0800A84202D3681C01D00C
:1048300031E07DB3E08E0028E4D120E0206B2168D8
:104840000078087306E020688168890709D5216B24
:1048500009780173206B401C2063E08E401EE086C7
:104860000AE0FEF7C1FEA0EB0800A84203D3681CD3
:1048700002D010E017E06DB1E08E0028E3D142468F
:104880002946204601F03CF908B120206065A06867
:1048900018B106E0FFE7032706E02068C1688068DA
:1048A0000090606D00B1012784F851B084F850A0E9
:1048B000384666E72DE9F84F044690F85000002787
:1048C0000A9E1D4692468B464FF0010901280ED0E4
:1048D000012084F85000FEF787FE804694F85100CE
:1048E000616801280CD0B1F5827F07D102E0022077
:1048F000BDE8F88FA16809B9042801D00227C2E0F9
:10490000BBF1000F27D0BAF1000F24D01DB394F8EB
:104910005100042802D0052084F851000020606571
:10492000C4F838A0E587A587C4F830B0E586A58629
:104930002064606420680168490603D4016841F07E
:1049400040010160E068B0F5006F606805D0E8B331
:10495000012D46D07FE0012795E008B1012D39D126
:10496000206B21680088C860206B801C2063E08E6B
:10497000401EE0862EE02068816889070FD5E18E11
:1049800069B1B9F1010F0AD1216B0988C160206BAF
:10499000801C2063E08E401EE0864FF000092068F6
:1049A0008168C9070CD0E18F51B1C068A16B088044
:1049B000A06B801CA063E08F401EE0874FF00109D0
:1049C000FEF712FEA0EB0800B04200E009E001D3C0
:1049D000701C50D1E08E0028CDD1E08F0028CAD1C4
:1049E0003FE0206B216800780873206B401C206337
:1049F000E08E401EE0862EE02068816889070FD592
:104A0000E18E69B1B9F1010F0AD1216B0978017307
:104A1000206B401C2063E08E401EE0864FF00009B2
:104A200020688168C9070CD0E18F51B1C068A16BC3
:104A30000870A06B401CA063E08F401EE0874FF021
:104A40000109FEF7D1FDA0EB0800B04202D3701CB3
:104A500001D010E07EB1E08E0028CDD1E08F00289B
:104A6000CAD142463146204601F04AF828B1012712
:104A70002020606507E0032705E0A06818B92068DA
:104A8000C16880680090012084F85100002084F8FB
:104A9000500038462CE710B5401EB0F1807F01D39E
:104AA000012010BD4FF0E02460610F21601701F07C
:104AB00050FB0020A06107202061002010BD70473E
:104AC0007047000070B590F83C20012A2CD00124DA
:104AD00080F83C40022280F83D2003685A689D68B7
:104AE00022F070060A6832435A60104B02689A42FC
:104AF0000ED00F4B9A420BD0B2F1804F08D00D4B25
:104B00009A4205D00C4B9A4202D00C4B9A4204D1E7
:104B1000496825F080031943916080F83D400021E9
:104B200080F83C10084670BD022070BD002C01408A
:104B3000003401400004004000080040000C004028
:104B400010B5040003D094F83D0010B107E0012037
:104B500010BD002084F83C00204600F01FF8022021
:104B600084F83D00211D206801F086F8012084F8BA
:104B7000460084F83E0084F83F0084F8400084F842
:104B8000410084F8420084F8430084F8440084F82B
:104B9000450084F83D00002010BD000008B5006805
:104BA0000B49884212D10B48816941F4006181614F
:104BB0008069002200F40060009011461920FEF781
:104BC0007BFEBDE808401920FEF768BE08BD000066
:104BD000002C01400010024070B5044690F83C00E3
:104BE000012817D0012584F83C50022084F83D00AC
:104BF0002068826822F0770222F47F42826008688F
:104C0000502830D00DDC20284DD005DC98B310287A
:104C10003BD148E0022070BD302844D0402834D138
:104C200039E0602828D0702806D0B0F5805F2CD0FD
:104C3000B0F5005F29D10AE0CB68D1E901212068F5
:104C400001F060F82068816841F0770109E0CB68E5
:104C5000D1E90121206801F055F82068816841F40C
:104C60008041816011E0CA684968206801F05CF801
:104C70005021206807E016E0CA684968206801F002
:104C800064F86021206801F047F884F83D50002066
:104C900084F83C0070BDCA684968206801F044F897
:104CA00040212068EFE7226801461046EBE7704795
:104CB00070B50446006801694FF00005C9438907D3
:104CC00015D4C168C943890711D4E91E01610120C7
:104CD0002077206880698007204602D0FFF7E7FF31
:104CE00004E000F098F8204600F096F82577206858
:104CF0000169C943490717D4C168C943490713D497
:104D00006FF004010161022020772068806910F4AF
:104D1000407F204602D0FFF7CAFF04E000F07BF896
:104D2000204600F079F8257720680169C943090712
:104D300016D4C168C943090712D46FF00801016194
:104D4000042020772068C0698007204602D0FFF742
:104D5000AEFF04E000F05FF8204600F05DF8257734
:104D600020680169C943C90617D4C168C943C90687
:104D700013D46FF010010161082020772068C0690A
:104D800010F4407F204602D0FFF791FF04E000F0CE
:104D900042F8204600F040F8257720680169C943B1
:104DA000C90708D1C168C943C90704D1891E016177
:104DB000204600F032F820680169C943090609D489
:104DC000C168C943090605D46FF08001016120461E
:104DD000FFF775FE20680169C943490609D4C16817
:104DE000C943490605D46FF040010161204600F037
:104DF00015F820680169C94389060BD4C168C94305
:104E0000890607D46FF0200101612046BDE870409B
:104E1000FFF756BE70BD70477047704770477047C8
:104E200010B504460068416994F83D20C1F3C011F3
:104E3000212A0BD151B1416921F080014161606BA0
:104E400008B1FEF73BF8204601F02CF820684169D4
:104E500094F83E20C1F38011222A0BD151B141694F
:104E600021F040014161A06B08B1FEF727F8204610
:104E700001F000F8002010BD70470000F8B502688E
:104E800004461068D168536910F00F0F4FF0000509
:104E900054D003F0010601F4907737435FD0C20786
:104EA00005D0CA0503D5226C42F0010222644207F4
:104EB00005D5DA0703D0226C42F002022264820791
:104EC00005D5DA0703D0226C42F0040222640207FF
:104ED00007D501F02002324303D0226C42F00802D1
:104EE0002264226C002A35D0800604D5880602D5BB
:104EF000204600F0E0FF20684069216CC0F380107C
:104F000001F008010143204625D000F0B3FF2068DE
:104F1000416949061BD5416921F040014161A06BFF
:104F2000A8B158494163A06BFDF7ECFF002811D0F0
:104F3000A06B416B01B0BDE8F040084783060ED579
:104F40008B060CD52046BDE8F84000F0B4BF2046E3
:104F5000FFF792FFF8BDFFF78FFF2564F8BD266BC2
:104F60002023012E52D1C60650D5CE064ED510684C
:104F700050680090506940062AD5A16B08684068C7
:104F80000004000CEAD0A68D8642E7D9E085886946
:104F9000202818D0D06820F48070D0602068416943
:104FA00021F0010141612068416921F04001416126
:104FB00084F83E3025632068C16821F01001C1608B
:104FC000A06BFDF77BFFA08DE18D401A81B219E047
:104FD000A08DE18D401A81B2E08D0028BED000295D
:104FE000BCD0D06820F49070D0602068426922F074
:104FF0000102426184F83E3025632068C26822F0D5
:105000001002C2602046FFF70AFFF8BD05062BD547
:105010000D0629D594F83D002128F6D1A068B0F5F9
:10502000805F01D12069B0B1206A411C21622168F2
:1050300000784860E08C401E0004000CE084E4D15D
:105040002068C16821F08001C1602068C16841F01A
:105050004001C160F8BD206A0088C0F308005060BC
:10506000206A801C2062E5E74006F3D54806F1D5AA
:10507000D168204621F04001D16084F83D3000F035
:1050800009FAF8BD6F5D000870B5040004D094F80B
:105090003D00002510B106E0012070BD84F83C50B1
:1050A000204600F023F8242084F83D002068C168E1
:1050B00021F40051C160204600F058FF20680169CA
:1050C00021F4904101612068416921F02A01416188
:1050D0002068C16841F40051C1602564202084F833
:1050E0003D0084F83E00002070BD00002DE9F04333
:1050F00085B0002400940194029403940546DFF8DF
:105100000482D0F800C08048022103227F4B102780
:1051100080264FF48069C44545D1D0F818C04CF4BE
:10512000804CC0F818C0D0F818C00CF4804CCDF8F2
:1051300010C0D0F818C04CF0040CC0F818C080693A
:10514000039200F0040004900802CDE900016946D2
:1051500098461846FEF73EF9CDE900946946404668
:105160000294FEF737F9DFF8AC8169494046C0E99F
:105170000246C8F81040C8F81440C8F81840C8E9FA
:105180000017C8F81C40FEF779F808B1FDF735FDA7
:10519000C5F83480002211462520C8F82450FEF7B7
:1051A0008BFB252062E0DFF87081C44563D1D0F825
:1051B0001CC04CF4003CC0F81CC0D0F81CC00CF45F
:1051C000003CCDF810C0D0F818C04CF0040CC0F86A
:1051D00018C08069039200F0040004900420CDE917
:1051E0000001694699461846FEF7F4F80820CDE913
:1051F0000004A046694648460294FEF7EBF8DFF843
:105200001C91434948462831C0E90014C0E90246D0
:10521000C9F81040C9F81440C9F81840C9F81C4032
:10522000FEF72CF808B1FDF7E8FC39483C4CC5F80E
:1052300038903C30C9F82450C4E90007C4E902861C
:10524000C4F81080C4F81480C4F818802046C4F84C
:105250001C80FEF713F808B1FDF7CFFC6C63002249
:10526000114626206562FEF727FB2620FEF716FB77
:1052700005B0BDE8F0832B4B9C45F9D1C36943F4DD
:105280008023C361C36903F480230493836943F0DB
:10529000080383618069CDE9009100F00800CDE941
:1052A0000320DFF8848069464046FEF793F84FF408
:1052B0000060CDE90004694640460294FEF78AF892
:1052C000DFF86880124940462839C0E90246C8F82C
:1052D0001040C8F81440C8F81840C8E90017C8F8CA
:1052E0001C40FDF7CBFF08B1FDF787FCC5F8348003
:1052F000002211462720C8F82450FEF7DDFA2720A7
:10530000B4E70000003801400010024000080140EE
:1053100044000240B87A002000440040FC7A00209B
:10532000407B002000480040000C0140847B0020AE
:1053300090F83E30202B0ED159B152B190F83C304C
:10534000012B08D0012380F83C300023036300F0D8
:1053500069BE012070470220704770477047000007
:105360002DE9F843044690F83D001F4616460D46C9
:1053700020284CD1C5B1BEB194F83C00012846D0DC
:10538000012084F83C004FF00008C4F84080212040
:1053900084F83D00FEF728F9A6848146E684A068DB
:1053A000B0F5805F03D004E00120BDE8F8832069F8
:1053B00028B12E465FF0000584F83C800EE0002600
:1053C000FAE78021204600F065FEA0B9AEB116F8DC
:1053D000010B21684860E08C401EE084E08C4B4665
:1053E0004FF0000200970028EBD14FF0400120461B
:1053F00000F050FE30B10320D7E735F8020BC0F3C0
:105400000800E6E7202084F83D000020CDE70220D8
:10541000CBE7000070B5044690F83D00202830D15D
:1054200069B362B394F83C0001282AD0012084F8C3
:105430003C002162A284E28400252564212084F8B6
:105440003D00636B10489862636B1048D862636BD1
:105450000F481863606B134645632668606B321D06
:10546000FDF74AFF21686FF04000086084F83C5067
:105470002068416941F080014161002070BD012038
:1054800070BD022070BD00003D5E00086B5E00082C
:105490007F5D000870477047FEE700003EB50024BE
:1054A00011480094019402940E49846001600473D1
:1054B0000475012505614FF460214460C161FDF769
:1054C0001DFC08B172B6FEE70820CDE9000569466B
:1054D00002940548FDF794FB002801D072B6FEE760
:1054E0003EBD000000240140B03100202DE9F04F06
:1054F00085B000267F480096019602960396816942
:1055000041F040018161816901F0400104918169AC
:1055100041F010018161816901F0100104918169FC
:1055200041F004018161816901F004010491816904
:1055300041F008018161816901F0080104918169EC
:1055400041F0200181618069DFF8ACB100F02000FA
:105550000490002204215846FEF740F80122302131
:105560005846FEF73BF8002241F284016348FEF7FB
:1055700035F8012210216248FEF730F84FF4805AC6
:10558000002251465F48FEF729F8012251035D4889
:10559000FEF724F8012240215848FEF71FF80022A8
:1055A00008215948FEF71AF8012240215648FEF713
:1055B00015F801244FF00409CDE90094032569464C
:1055C0005846CDE90245FDF705FF4FF6CB70CDE912
:1055D000000569465846FDF7FDFE4FF0100802270A
:1055E000CDF80080CDE90147694658460397FDF79D
:1055F000F1FE2020CDE90004CDE902476946584676
:10560000FDF7E8FE42F20B70CDE9000569463B4824
:10561000FDF7E0FEC420CDE90004CDE9024769466C
:105620003648FDF7D7FE41F60110CDE90005694681
:105630003348FDF7CFFECDE9008469463048CDE917
:105640000245FDF7C7FE4CF2C400CDE900056946EE
:105650002C48FDF7BFFE2803CDE900046946294820
:10566000CDE90245FDF7B6FE4FF6B370CDE9000572
:1056700069462548FDF7AEFEDFF89080E002CDE9EF
:105680000008694602961D48FDF7A4FECDE900A476
:1056900069461A48CDE90245FDF79CFECDF8009019
:1056A000CDE9018669461848FDF794FE08208DE88B
:1056B0009100694614480397FDF78CFE4020CDE920
:1056C0000004CDE9024769460F48FDF783FE00223A
:1056D00011460820FEF7F0F80820FEF7DFF8002258
:1056E00011462820FEF7E8F82820FEF7D7F805B085
:1056F000BDE8F08F0010024000180140001001408A
:1057000000080140000C014000140140000011108D
:105710007CB500241E4801941C4900940160611E60
:1057200041604FF480718160FEF742FD08B172B6AE
:10573000FEE701211648FEF763FC45F65A25A8420C
:1057400023D08DF804408DF805408DF806400022E6
:1057500001A90F48FEF702FE08B172B6FEE701206C
:105760008DF800008DF801008DF802008DF80340DF
:10577000002269460648FEF78FFD08B172B6FEE7C3
:105780002A4601210248FEF743FC7CBD0028004068
:10579000343200200F4810B50D4901604FF482717A
:1057A000416000218160C1604FF400720161C0E975
:1057B00005121022C0E90721416281620A21C162FB
:1057C000FEF753FE002801D072B6FEE710BD0000C0
:1057D00000300140483200200C4810B50A490160F1
:1057E000002141608160C1600161416181610162AC
:1057F000416281620A21C162FEF737FE002801D0B2
:1058000072B6FEE710BD0000003C0040A032002050
:1058100010B586B0002417480094019402940394B4
:10582000049413490594C0E900144FF6FF71C0E9D0
:105830000241046144618461FFF782F908B172B6E4
:10584000FEE74FF48050009069460A48FFF7C4F91C
:1058500008B172B6FEE7049404A906480594FFF760
:1058600031F9002801D072B6FEE706B010BD000085
:10587000002C0140F8320020FEE7FEF729FAFEE78F
:105880007047010901EB810100F00F0000EB4100BE
:10589000C0B27047002102E00A38C0B2491C0A2891
:1058A000FAD2090740EA116070472DE9F041044639
:1058B0000025C07B627BA37B42E0012A16D0032A2D
:1058C00014D0052A12D0072A10D0082A0ED00A2A8E
:1058D0000CD00C2A0AD0042A10D0062A0ED0092A8D
:1058E0000CD00B2A0AD0022A0DD028E01F2B0CD393
:1058F0000C2A05D101221346401C20E01E2B04D3A4
:105900000123521C1BE01C2B02D203F1010316E001
:1059100011D183B29E0710D16426B3FBF6F706FBC4
:10592000173636B94FF4C876B3FBF6F706FB1733D4
:105930001BB91D2303E01D2B01D1032201236D1C84
:105940008D42BAD3D1B2E0736173DAB2A27300F0C0
:1059500056F82073BDE8F08170B50446FDF744FEAB
:1059600005464FF47A7606E0FDF73EFE401BB04256
:1059700001D9032070BD206840688006F4D52068F6
:10598000416841F010014160002070BD70B50446CF
:105990000068416821F010014160FDF725FE0546D1
:1059A0004FF47A7607E000BFFDF71EFE401BB042C1
:1059B00001D9032070BD206840688006F4D500201E
:1059C00070BD00000148FEF72DBB000034320020FE
:1059D0000168086A496A89B241EA00407047006874
:1059E00081698AB2C1698BB2816989B28A4203D066
:1059F000C06961F31F40704743EA02407047F0B549
:105A00006424C1EBC1030927A500072603EB01139A
:105A10000329B3FBF7F100F5FA60114401440AD2FF
:105A2000401EB0FBF4F201EB9001B0FBF5F0891AD7
:105A30000844001D08E0B0FBF4F201EB9001B0FB5C
:105A4000F5F0891A0844801CB0FBF6F106FB110042
:105A5000C0B2F0BD70B50D4606460024FFF77CFFCE
:105A600048B93168280C08623168A8B248623046EB
:105A7000FFF78CFF00B10124204670BD70B50D46C4
:105A800006460024FFF768FF48B93168280C886192
:105A90003168A8B2C8613046FFF778FF00B1012431
:105AA000204670BDF8B5044640684FF482739842B2
:105AB00017D1A0684FF48065B0F5004F01D0A8421F
:105AC0000FD12068066826F040060660606898429C
:105AD00007D1A068A84204D100920B460022012100
