:020000040800F2
:1000000060590020790200083B4900086D4500084E
:10001000394900084F1D0008F95000080000000091
:10002000000000000000000000000000994C0008E3
:10003000AB1D000800000000414900089B4C00086F
:10004000930200089302000893020008854A000802
:10005000930200089302000893020008930200082C
:10006000B51D0008930200089302000893020008DF
:10007000511D0008930200085D1D0008930200084E
:10008000691D0008751D000893020008930200080E
:1000900093020008930200089302000893020008EC
:1000A000930200082D4D00089302000893020008F7
:1000B00093020008930200089302000893020008CC
:1000C00093020008930200089302000893020008BC
:1000D00093020008D5500008E1500008ED500008D8
:1000E000AD1D000893020008930200089302000867
:1000F000930200089302000893020008930200088C
:10010000930200089302000893020008930200087B
:10011000930200089302000893020008930200086B
:10012000930200089302000893020008930200085B
:1001300000F002F800F090F80AA090E8000C824469
:100140008344AAF10107DA4501D100F085F8AFF246
:10015000090EBAE80F0013F0010F18BFFB1A43F0A5
:1001600001031847C06A0000E06A0000103A24BF8B
:1001700078C878C1FAD8520724BF30C830C144BF0C
:1001800004680C607047000000230024002500264E
:10019000103A28BF78C1FBD8520728BF30C148BFEA
:1001A0000B6070476E2900F04383702900F0A38430
:1001B000662906F00B84652906F00884672906F095
:1001C0000584612906F0048403681B0A28BF41F0F6
:1001D0008001692900F0F680642900F0F380752918
:1001E00000F0F0806F2900F03184782900F06F84EE
:1001F000E92900F0CB83E42900F0C883F52900F059
:10020000C583EF2900F02E84F82900F06E8403687E
:10021000DB0928BF41F08001632900F04C8373297A
:1002200000F05183E32901F04B80F32901F0508065
:10023000002070471FB501F09DF804000020002148
:1002400005F0FAFE401C60600020002105F0DEFE93
:10025000E0601FBD10B510BD01F05EF81146FFF75C
:10026000E9FF05F041FA01F037F903B4FFF7F2FFB7
:1002700003BC01F07FF900000948804709480047A6
:10028000FEE7FEE7FEE7FEE7FEE7FEE7FEE7FEE746
:10029000FEE7FEE704480549054A064B70470000A3
:1002A000294D0008310100086053002060590020EA
:1002B00060550020605500207CB51D4616460C0098
:1002C000009001D02044401E074B7B442A466946DB
:1002D0000190304600F0C5FA05461CB10020694681
:1002E00000F0D2FA28467CBDC50500000FB47CB5ED
:1002F0000C0009AA009001D02044401E084B7B440A
:1003000069460190089800F0ACFA05461CB100203F
:10031000694600F0B9FA28467CBC5DF814FB000081
:100320009105000070B5044685690068C10601D5D5
:10033000302600E02026C00707D070BDD4E9012197
:1003400030469047206A401C20626D1EF6D570BD75
:1003500070B5044685690078C00707D170BDD4E93F
:10036000012120209047206A401C20626D1EF6D596
:1003700070BD70B50C460546012A05D02878800668
:1003800000D5EA69002302E0012305E05B1C9342EB
:1003900002D2E05C0028F9D1A869E618C01AA86169
:1003A000286A184428622846FFF7BCFF04E0D5E914
:1003B000012114F8010B9047B442F8D32846FFF707
:1003C000C7FF70BD2DE9F04106460024106875296D
:1003D000314616A510D000F0C0F9002802DA4042DC
:1003E00013A507E031688A0701D512A502E0490785
:1003F00004D511A5012401E000F0B8F900210A227A
:1004000006F1240709E0B0FBF2FCB0FBF2F302FBBB
:100410001C00303078541846491C0028F3D123467C
:100420002A463046BDE8F04100F0A9B900000000BE
:100430002D0000002B000000200000002DE9F05FDF
:10044000894604464FF0000ADFF874B1FB44C0F857
:1004500020A02046E1688847002874D0252806D0CF
:10046000D4E901219047206A401C2062F1E7002670
:100470005F462046E16888472028054607DB312D86
:1004800005D2781910F8200C08B10643F1E7B0073F
:1004900001D526F00406C4F81CA00027C4F818A053
:1004A0002A2D09D0284604F04CFE38B304EB870807
:1004B000303DC8F8185019E059F8041B204604EBE9
:1004C00087029161E1688847012F054618D1E069EC
:1004D000002820DA26F020061DE0D8F8180000EBEE
:1004E000800005EB40003038C8F818002046E1686D
:1004F0008847054604F025FE0028EED1012F0AD0DA
:100500002E2D08D12046E16888477F1C0546022F22
:1005100046F02006C4DBA069002803DA404246F01A
:100520000106A061F00701D026F010066C2D0BD05B
:10053000682D09D04C2D39D06A2D35D0742D35D089
:100540007A2D33D016E038E0E1682F462046884700
:10055000B842054609D16C2F26D04FF48060E1687F
:10056000064320468847054604E06C2F1AD04FF416
:10057000807006430DB3A5F14100192802D820353B
:1005800046F400664A462946204626604E46FFF756
:1005900009FE80B101280BD0F61D26F0070000F1FE
:1005A000080956E74020E4E78020D8E70020D6E796
:1005B00006F104094DE7284652E7206ABDE8F09F9E
:1005C000BC6500000022CBB210F8011B994200D19B
:1005D000421E0029F8D11046704710B5431C02E0B6
:1005E00010F8011B71B18107FAD14FF0013202C836
:1005F0008C1A8C4314EAC211F9D0C01A0A0603D02F
:10060000C01E10BDC01A10BD0A0401D0801E10BD4E
:100610000902FCD0401E10BD032A40F2308010F0C9
:10062000030C00F0158011F8013BBCF1020F62448D
:1006300098BF11F801CB00F8013B38BF11F8013B1E
:10064000A2F1040298BF00F801CB38BF00F8013BCB
:1006500011F0030300F02580083AC0F0088051F83B
:10066000043B083A51F804CBA0E80810F5E7121D46
:100670005CBF51F8043B40F8043BAFF30080D20765
:1006800024BF11F8013B11F801CB48BF11F8012B31
:1006900024BF00F8013B00F801CB48BF00F8012B54
:1006A000704710B5203AC0F00B80B1E81850203ADE
:1006B000A0E81850B1E81850A0E81850BFF4F5AF02
:1006C0005FEA027C24BFB1E81850A0E8185044BF8C
:1006D00018C918C0BDE810405FEA827C24BF51F8F9
:1006E000043B40F8043B08BF7047D20728BF31F8ED
:1006F000023B48BF11F8012B28BF20F8023B48BF3E
:1007000000F8012B70474FF0000200B513469446E5
:100710009646203922BFA0E80C50A0E80C50B1F159
:100720002001BFF4F7AF090728BFA0E80C5048BF6D
:100730000CC05DF804EB890028BF40F8042B08BF0B
:10074000704748BF20F8022B11F0804F18BF00F807
:10075000012B704770477047704709684A0501D5FB
:1007600040B27047C905FCD500B2704709684A0518
:1007700001D5C0B27047C905FCD580B270472DE9DC
:10078000F0470D4699469246044600F12408016858
:10079000880604D5E06921F01001216000E0012005
:1007A000A84201DD471B00E00027A1697A1902EB8E
:1007B0000900081AA0612078C00602D42046FFF77D
:1007C000B1FD002608E0D4E901211AF8060090479F
:1007D000206A401C761C20624E45F4DB2078C0065F
:1007E0000AD52046FFF79EFD06E0D4E9012130201E
:1007F0009047206A401C2062381EA7F10107F4DCF4
:1008000007E0D4E9012118F805009047206A401C50
:100810002062281EA5F10105F3DC2046FFF798FDB4
:100820002078000602D50220BDE8F0870120FBE712
:1008300011680268006A530501D508700AE0D30503
:1008400001D5088006E0130603D5C217C1E90002EE
:1008500000E008600120704701694A1C02610878C5
:10086000704700B58FB0CDE90131002105910549F0
:100870007944CDE9031011466846FFF7DFFD0FB05C
:1008800000BD0000E5FFFFFF0A6802F8010B0A60E7
:100890007047D1E900239A4202D2531C0B601070BA
:1008A000704710B5436913B1AFF3008001E0FFF763
:1008B00060FD012010BD127800F124010A700022B1
:1008C0004A700122EDE711684FF0FF32E9E70000BE
:1008D0002DE9FF5F15468A460446DFF8AC80F844F0
:1008E0000027D8E900103E46CDE9001010E03AF8A4
:1008F00016106A4602A800F0EFFC411C07D02178D0
:10090000890603D5E269391891420DD80744761C4F
:100910002078800602D5E069B84205DDAE42E6DB0C
:100920003AF816000028E2D1A069C01BA061204659
:10093000FFF7F8FCD8E90010CDE90010002017E01F
:100940003AF818106A4602A800F0C6FCB0F1FF3F62
:1009500081460BD000250DF1080B05E0D4E90121FB
:100960001BF8050090476D1C4D45F7D308F10100B9
:10097000B0428046E4DB206A384420622046FFF71C
:10098000E7FCBDE8FF9F00003E6100002DE9F0415B
:100990008046D21D22F007020025D2E90002F52987
:1009A00015A614D0011E72F1000106DA0023D0EB67
:1009B000030063EB020211A608E0D8F800108B07D1
:1009C00001D50FA602E0490701D50EA60125114663
:1009D000002408F1240704E000F098F830323A557A
:1009E000641C50EA0102F7D12B46324621464046AC
:1009F000BDE8F041FFF7C3BE000000002D0000007D
:100A00002B0000002000000030B4002100F124047D
:100A100008E002F00705D208303542EA4372DB08ED
:100A20006554491C52EA0305F3D10468002310A25F
:100A3000250708D504F020040C4304D0C469012321
:100A40000CA2641EC46130BCFFF799BE10B5044609
:100A500021461068FFF78AFE02462046BDE8104096
:100A60000023D1E7D21D22F00701D1E90023CBE713
:100A70000000000030000000F0B40D4601880905B8
:100A800002D5214C7C4402E01F4C7C440E340021F2
:100A900000F1240608E002F00F071209E75D42EAC0
:100AA00003721B097754491C52EA0307F3D10278F9
:100AB0000023120704D5702D06D009B1022311348A
:100AC0002246F0BCFFF75BBE01231034F8E770B597
:100AD00004460D4621461068FFF748FE02462946A7
:100AE0002046BDE870400023C6E7D21D22F0070370
:100AF000D3E90023C0E70368126843F020030360D2
:100B00000823C3610023B7E7A05F000030B5B0F150
:100B10000A024FEA900E71F100034EEA817EB0EBBB
:100B20000E0061EB91014FEA101E4EEA017E10EBC0
:100B30000E0041EB11114FEA102E4EEA016E10EB40
:100B40000E0041EB11214FEA104E4EEA014E10EB20
:100B50000E0041EB1141401841F100014FEAD00075
:100B600040EA41704FEAD10110EB80054FEA810461
:100B700044EA907444EB01046D1944EB0404521BE5
:100B8000A3414FF0000348BF0A3200D530BD401CDE
:100B900041F1000130BD70472DE9FF4F0C461E4664
:100BA0004FF0FF378BB0D2E90001DDF860800A908A
:100BB0008A46C1F30A5505B93D46002108464FF063
:100BC0000000BAF1000F00F4400005DA00EB8000ED
:100BD0004FF4400101EA50004FEA9059B9F1010F7A
:100BE00000DDB9460A9850EA4A000ED044F610508B
:100BF000A5F2FF3545432F14B8F1000F1ED0754202
:100C0000291E1EDDC9F100021CE0B8F1010F4FF0F2
:100C1000000001D0302103E0F24305E02154401CE4
:100C2000B042FBDB30460022002121540B99C1F871
:100C30000880C1E900200FB0BDE8F08FBD1B6D1C1E
:100C4000DEE74A4600DA694206A800F0D7FB06ABA9
:100C500093E8070003AB83E8070050460A9900F0C9
:100C600090FC8DE80700A0F500501F380090039815
:100C7000002D09DD42F21F014A46084403A90390F2
:100C8000684600F0EFFE08E0A0F500504A461F3825
:100C900003A90390684600F0F9FE8DE80700000400
:100CA000000C03D04FF0FF30410800E01046B8F1CF
:100CB000000F03D00022009215461EE0751E05D4D9
:100CC000FFF724FF303262556D1EF9D5B34601227D
:100CD000084302D000227F1C04E02078302801D194
:100CE00000227F1E002A099786D01DE0112D07DA09
:100CF000FFF70CFF303262556D1C50EA0102F5D14E
:100D0000084302D00098C8B10EE00021681E05E03B
:100D1000235C625C63542254401E491C8142F7DB11
:100D2000AB46A81B401E0990002004F80B000B984E
:100D3000099AC0F80880C0E9002B7CE711264FF023
:100D4000000859E72DE9F04F88460446D21D22F0ED
:100D5000070191B0D1E90001CDE90A0104F0CDF914
:100D600002460B98C00F01D02D2007E020688107B4
:100D700001D52B2002E0202101EAC000032A0990BE
:100D800001D0072A05DB03464146204600F0F6FA6B
:100D90000BE12078800601D5E06900E00620B8F17B
:100DA000650F814606D0B8F1660F18D0B8F1670F0D
:100DB00070D131E00020B9F1110F009001DB112357
:100DC00001E009F101030AAA01A90CA8FFF7E4FE5A
:100DD000DDE90C70002609F10105834647E001209A
:100DE0004B4600904FF000470AAA01A90CA8FFF754
:100DF000D3FEDDE90DB00C995D46002610B909F16E
:100E000001000D18B9EB050003D4C0F1FF3609F15C
:100E10000105A5EB09002BE0B9F1010F01DA4FF054
:100E200001090020B9F1110F0090484601DD11239E
:100E300000E003460AAA01A90CA8FFF7ADFEDDE910
:100E40000C704D4600268346207800070AD4AB4537
:100E500000DA5D4601A8012D04DD411911F8011CDD
:100E6000302907D04F4502DA17F1040F04DA0120C8
:100E700082460FE06D1EEEE7002F02DCED1B3E44C4
:100E800003E0781CA84200DD7D1CB81B00F1010ABC
:100E90004FF000472078000703D4AA4501DB4FF04C
:100EA000FF3A0021B7F1004F0DF143088DF84310D0
:100EB00024D002202B23002F01DA7F422D230A2188
:100EC000021EA0F1010000DC5FB197FBF1FC97FB73
:100ED000F1F201FB1C7C17460CF1300C08F801CD37
:100EE000EEE7A8F1010003702188090501D545212D
:100EF00000E06521A0F1010800F8011C09980FA984
:100F0000A1EB0807FF1D00B10120411901EBEA70B8
:100F1000A1693844081A401EA0612078C00602D496
:100F20002046FFF7FFF9099828B1D4E9012190473D
:100F3000206A401C20622078C00622D52046FFF798
:100F4000F1F91EE0002E04DBB34502DD01A8805D4F
:100F500000E03020D4E901219047206A401C206243
:100F6000761CAAF101005FEA000A0AD100F002FA39
:100F7000C0680168405CD4E901219047206A401CA8
:100F80002062281EA5F10105DCDC07E0D4E901217F
:100F900018F8010B9047206A401C2062381EA7F108
:100FA0000107F3DC2046FFF7D3F9032011B043E635
:100FB0002DE9F04F04460D46D21D22F0070089B0FE
:100FC000D0E9009248461746394604F096F80246A2
:100FD000F80F01D02D2307E02068810701D52B23CE
:100FE00002E0202101EAC0038DF820300BB101207E
:100FF00000E00020032A824601D0072A04DB2946AC
:10100000204600F0BBF93DE12078800601D40D2593
:1010100000E0E569C7F30A560D2D49DA00214FEAD1
:10102000175B08464FF00000002F00F4400007DA7D
:1010300000EB80004FF4400100EBD07001EA60004B
:101040008115012901DD4FF0FF3100224FEA850CA7
:10105000BCF1180F06D31346ACF118004FF08052C4
:10106000C24003E04FF4801323FA0CF30CF10C0C94
:10107000BCF1200F04D3ACF1200C09FA0CF001E014
:1010800007FA0CF000294FF0004801DD18B90FE015
:101090000ED140450CD319EB02095F4121B94045FF
:1010A00002D19F4329EA0209BBEB175F00D0761CEF
:1010B0002088000502D57B48784402E079487844CE
:1010C000193808AA302302F80A30037C0AF101011A
:1010D000002E0AF1020A53546A4602DC4FF0300136
:1010E00001E04FF031014FF001088DF8001002D0FF
:1010F000A6F2FF3603E059EA470100D06A4E002D00
:1011000002DC2178090704D54FF002082E218DF862
:101110000110C44600210BE0C7F303433F01C35C49
:10112000491C6D1E02F80830052908F1010801DA92
:10113000002DF1DC00210CE000EB1973491C1B7839
:101140006D1E082902F808304FEA091908F1010854
:1011500001DA002DF0DC2178890602D514E0A8F12F
:101160000108E04505DD02EB080111F8011C3029FA
:10117000F5D0B8F1000F07DD02EB080111F8011CF2
:101180002E2901D1A8F10108002D05DD3E2102F82C
:1011900008106D1E08F10108407C002E02F80800BE
:1011A00008F1010804DA2D20764202F8080002E076
:1011B0002B2002F808000A214FF47A70864208F1C9
:1011C00001080BDB96FBF0F3303302F8083096FB96
:1011D000F0F308F1010800FB136601E0642E0CDB5C
:1011E000642096FBF0F3303302F8083096FBF0F3FE
:1011F00008F1010800FB136601E00A2E06DB96FBEE
:10120000F1F0303002F8080008F1010896FBF1F027
:1012100001FB1060303002F80800A16908F10108F4
:1012200008EB050202EB0A00081AA0612078C0064C
:1012300002D42046FFF776F8216A08AE01EB0A00D7
:10124000206204E0D4E9012116F8010B9047BAF1BD
:10125000010AF7D22078C00602D52046FFF762F8CF
:101260006E4609E016F8010B3E280FD0D4E90121A3
:101270009047206A401C2062B8F10108F2D2204653
:10128000FFF766F809B00320BDE8F08F206A284414
:10129000206203E0D4E90121302090476D1EEBD39A
:1012A000F8E70000A759000002FCFFFF10B54369F2
:1012B00013B1AFF3008001E0FFF70AFB012010BD7E
:1012C000128800F1240182840022C2840122EDE709
:1012D00011684FF0FF32E9E770B516460C46054637
:1012E00000F040F8036893F80101012806D0FF2CB4
:1012F0000FD8185D68B101202C7070BDD3F80701BC
:101300003246214603F2071303442846BDE87040E5
:1013100018474FF0FF3070BD754600F0E7F8AE4655
:1013200005006946534620F00700854618B020B5F1
:10133000FEF7B0FFBDE820404FF000064FF0000779
:101340004FF000084FF0000B21F00701AC46ACE86D
:10135000C009ACE8C009ACE8C009ACE8C0098D46DA
:101360007047000010B500F005F8001D10BD00BF6B
:10137000C94C0000004870471C5300202DE9F04183
:101380001F46044603260168072A01F4006004DBB7
:1013900008B116A505E016A503E008B115A500E003
:1013A00015A521F010002060A069C01EA0610FB13A
:1013B000401EA0612046FEF7B5FF4FB1D4E90121E0
:1013C00038469047206A401C2062C01C206206E01C
:1013D000206AFAE7D4E9012115F8010B9047761E3F
:1013E000F8D22046FEF7B4FFBDE8F0814E414E0032
:1013F0006E616E00494E4600696E66002DE9F04749
:10140000814616468AB0334878440DC88DE80D00F1
:1014100030487844801C03AC0DC884E80D0041F6C8
:101420009B300844372190FBF1F290FBF1F5A5F1D8
:10143000800501FB12041B3C02D56442012000E040
:101440000020DFF890A080460027FA44AAF1BE0AE7
:101450000DE0E00709D03246684607EB47010AEB8A
:10146000810100F013FB8DE8070064107F1C002C45
:10147000EFD1184F7F44AC3F18E0E80714D007EBDA
:1014800004100DF1180A90E80E008AE80E00C068FA
:10149000F04201D198190890324606A903A800F03D
:1014A000F5FA03AB83E807006D10641C002DE4D14E
:1014B00032466946B8F1000F03A802D000F0D2FA14
:1014C00001E000F0E3FAC9E90001C9F808200AB018
:1014D000BDE8F087E856000010B50446AFF3008081
:1014E0002046BDE81040FEF7C0BE0000004870472F
:1014F000FC5200204FF0013C50F8042B51F8043B03
:101500009A4221D1A2EB0C03934313EACC1317D1D7
:1015100050F8042B51F8043B9A4215D1A2EB0C036E
:10152000934313EACC130BD150F8042B51F8043B2E
:101530009A4209D1A2EB0C03934313EACC13DBD0FC
:101540004FF00000704700BFD01A01BAB1FA81F124
:1015500001F0180122FA01F0CB40C1F12001DBB209
:10156000C0B2C01A2CFA01F3D11A914311EAC31187
:10157000E6D1704701491820ABBEFEE72600020005
:1015800070475FEA400C08BF91F0000F4FEA8C23D0
:101590004FEAC12243EA51514FEA1C5018BF00F5EF
:1015A000F0404FEA300018BF41F000415FEA6C5C48
:1015B00000F02980BCF1FF3F08BF40F08040704739
:1015C000130C06BF12044FF0100C4FF0000C130E5A
:1015D00004BF12020CF1080C130F04BF12010CF12E
:1015E000040C930F04BF92000CF1020CD30F04BF44
:1015F00052000CF1010C11464FF00002A0F11F0047
:10160000A0EB0C00704711F0004F08BF704731F09D
:1016100000413FF4D5AF0B0C06BF09044FF0100C8E
:101620004FF0000C0B0E04BF09020CF1080C0B0F5D
:1016300004BF09010CF1040C8B0F04BF89000CF1ED
:10164000020CCB0F04BF49000CF1010CCCF12003BC
:10165000A0EB0C0022FA03F302FA0CF241EA0301B8
:1016600000F10100704720F07F4C80EA030023F076
:101670007F47ACEB070303F57C5300F0004003F118
:10168000FF032DE980494FEA154B09B44FEA144393
:1016900025EA0B4E24EA03480FF2042606EB132733
:1016A00049083E785FEA320203FB0667C7F5000788
:1016B00007FB06F64FEA54374FEAD64606F1020614
:1016C00007FB066CCCF1005C4FEA1C472CEA074C88
:1016D00007FB06F40CFB06F504EB15464FEA9616DD
:1016E00034BF00204FF000404FEAD13706FB07FC23
:1016F0004FEA1C4C0CFB0BF7D21B03FB0CF761EB06
:1017000007010CFB0EF7B0EB074072EB17420CFB26
:1017100008F734BFA2EB0742B2EB074261EB174177
:101720004FEA0C444FEA910706FB07FC4FEA1C4CBA
:101730000CFB0BF7B0EBC74072EB573203FB0CF717
:1017400034BFA2EBC742B2EBC74261EB57310CFB8F
:101750000EF7B0EBC70072EB57720CFB08F734BF03
:10176000A2EBC702B2EBC70261EB5771039F4FEACE
:10177000816141EA921104EBCC044FEAD1374FEA80
:10178000826206FB07FC42EA90124FEA80604FEA51
:101790001C4C0CFB0BF7D21B03FB0CF761EB070196
:1017A0000CFB0EF7B0EB074072EB17420CFB08F78F
:1017B00034BFA2EB0742B2EB074261EB17414FEA9D
:1017C0008C554FEA910704EB9C2406FB07FC4FEA7B
:1017D0001C4C0CFB0BF7B0EBC74072EB573203FB12
:1017E0000CF734BFA2EBC742B2EBC74261EB5731F3
:1017F0000CFB0EF7B0EBC70072EB57720CFB08F74F
:1018000034BFA2EBC702B2EBC70261EB577115EB15
:101810004C254FEA816141EA92114FEA82624FEA18
:10182000D13742EA901206FB07FC44F100044FEA6C
:1018300080604FEA1C4C0CFB0BF7D21B03FB0CF730
:1018400061EB07010CFB0EF7B0EB074072EB1742A0
:101850000CFB08F734BFA2EB0742B2EB074261EB87
:10186000174115EB1C154FEA813141EA92414FEACD
:10187000823242EA90424FEA80304FEA0C7644F1DD
:10188000000448EA03434EEA0B484FF0000EB2EB67
:10189000080C71EB030724BF624639464EEB0E0E6F
:1018A0004FF0000B0018524149414BEB0B0BB2EBD0
:1018B000080C71EB03077BF1000B24BF624639462D
:1018C0004EEB0E0E4FF0000B0018524149414BEB0E
:1018D0000B0BB2EB080C71EB03077BF1000B24BF81
:1018E000624639464EEB0E0E51EA020718BF46F02B
:1018F000010616EB0E7655F1000254F1000103D5F6
:10190000BDE88901BDE80088BDE88901BDE800485F
:10191000B619524141EB0101A3F1010370478080E8
:101920007F7E7D7C7B7A7978777676757473727139
:1019300071706F6E6E6D6C6C6B6A6A6968686766F1
:1019400066656464636362616160605F5F5E5E5D83
:101950005D5C5C5B5B5A5A595958585757565655F7
:1019600055555454535352525251515050504F4F59
:101970004F4E4E4D4D4D4C4C4C4B4B4B4A4A4A49A9
:1019800049494848484747474746464645454544EC
:101990004444444343434342424242414141002B79
:1019A00026D4770021D01CB54FEA370703B44FF097
:1019B00010004FF010014FF000000FBCBDE81040C8
:1019C0000BF1010BBBF1010F08BF5FEA170722BF44
:1019D00012F1010211F101014FF0004143F1000346
:1019E00000F0004043EA00007047F9D35708DAE7F7
:1019F00046EA064613F1400F4FEA16461FDD13F183
:101A0000200FDFBF16430A46002120335B42C8D0B7
:101A1000C3F1200746EA064602FA07F74FEA1646E0
:101A200046EA0706C3F1200722FA03F201FA07F794
:101A300021FA03F14FF0000342EA0702B1E746EA58
:101A4000020646EA06464FEA164646EA0106BCBFCB
:101A500046EA0646360C4FF000034FF000024FF006
:101A600000019EE72DE9C048934630B491E8380064
:101A700007C831EA400C48BF34EA430C03D5FFF7EE
:101A8000F2FDFFF78CFFF0BCBDE800882DE9C048EF
:101A9000934630B491E8380007C810F0804F08BF73
:101AA00013F0804F03D100F005F8FFF778FFF0BC8A
:101AB000BDE8008820F07F4780EA030023F07F4CD8
:101AC00007EB0C03A3F57C5300F00040A3F1FE03E9
:101AD00092F0000F00F0B38095F0000F00F07780D7
:101AE0002DE901494FEA11404FEA144621EA004826
:101AF00000FB06FC24EA064708FB06F607FB08F88D
:101B000000FB07F718EB06484CEB164C4FEA124B5C
:101B100018EB07484FEA15464CEB174022EA0B4EEC
:101B20000BFB06FC25EA06470EFB06F607FB0EFE3E
:101B30000BFB07F71EEB064E4CEB164C4FF0000666
:101B40001EEB074E4CEB174B18EB0B0840F1000057
:101B500018EB0E0B58EB000840F100008F1A4FF005
:101B600000013CBFC943661B14BFB5EB040C002148
:101B70003CBFC943F61B4FEA17444EEA8E0E27EAD4
:101B800004454FEA1C4704FB07622CEA074C05FB9F
:101B900007F70CFB05F604FB0CFC16EB074642EBC3
:101BA000174216EB0C4642EB1C421BEB060658EBA9
:101BB0000202414146EA9E0601D5BDE80189B619F7
:101BC000524141EB0101A3F10103BDE801894FEA54
:101BD00014454FEA114724EA054621EA074C05FB64
:101BE00007F406FB07F70CFB06F105FB0CFC11EBF9
:101BF000074144EB17444FEA124711EB0C4144EB09
:101C00001C4422EA074C05FB07F206FB07F70CFB16
:101C100006F605FB0CFC16EB074642EB174216EBEB
:101C20000C4642EB1C456A1854F1000148BF70474E
:101C3000B619524141EB0101A3F10103704795F040
:101C4000000F37D04FEA11424FEA144721EA02460B
:101C500024EA074C02FB07F106FB07F70CFB06F42E
:101C600002FB0CFC14EB074441EB17414FEA15470C
:101C700014EB0C4441EB1C4125EA074C02FB07F531
:101C800006FB07F70CFB06F602FB0CFC16EB0746FF
:101C900045EB174516EB0C4645EB1C42121951F16A
:101CA000000148BF7047B619524141EB0101A3F151
:101CB000010370474FEA14454FEA114724EA0546ED
:101CC00021EA074C05FB07F106FB07F70CFB06F2C0
:101CD0004FF0000605FB0CFC12EB074241EB1741ED
:101CE00012EB0C4251EB1C4148BF7047921841EB7C
:101CF0000101A3F10103704770B5044600688168D3
:101D0000C943C90717D1816821F00101816000F042
:101D10003BFD05460AE000BF00F036FD401B0228EF
:101D200004D920688068C043C00706D02068806856
:101D3000C043C007F0D0002070BDA06A40F0100082
:101D4000A062E06A40F00100E062012070BDFEE7A1
:101D5000014800F04FBA0000B8520020014800F0DE
:101D600049BA0000EC510020014800F043BA0000DD
:101D700030520020014800F03DBA000074520020AB
:101D800030B590F840500124AC40C56B6C600468DD
:101D900063604368102B036803D099600068C260D9
:101DA00030BD9A600068C16030BD70474FF400607C
:101DB00000F0DCBB042000F0D9BB72B6FEE70000E7
:101DC000F8B50024009490F824202546012A12D06A
:101DD000012280F824204A681F23072A0DD20668B2
:101DE000776B521E02EB820293409F430B68934035
:101DF0001F43776319E00220F8BD06680D2A0AD256
:101E0000376BD21F02EB820293409F430B689340D3
:101E10001F43376309E0F76A0D3A02EB82029340F1
:101E20009F430B6893401F43F7620A6807230668C5
:101E30000A2A0AD3F7680A3A02EB420293409F4308
:101E40008B6893401F43F76008E0376902EB42025A
:101E500093409F438B6893401F4337610A68102A61
:101E600001D0112A20D1124B02689A4217D19368EF
:101E70001B0219D4936843F4000393600968102986
:101E800012D10C490C4A0968B1FBF2F101EB810156
:101E9000490000E0491E00910029FBD104E0816A5D
:101EA00041F020018162012480F824502046F8BDD1
:101EB000002401404000002040420F002DE9F04185
:101EC00004004FF0000514D0A06A002628B9E6628D
:101ED00084F82460204600F083F82046FFF70CFFCA
:101EE000A16A01F01001014304D0A06A40F0100083
:101EF000A0626BE0A16A21F4885141F00201A16265
:101F0000334923688B42E16904D1B1F5402F01D1F7
:101F10004FF40021277B4FF4807C41EA470261683F
:101F20000A43A168614509D0012907D05FF000018B
:101F300094F814E0BEF1010F02D00AE06146F7E721
:101F4000C7B1A76A47F02007A762E76A47F0010711
:101F5000E7625F6827F469470F435F602368996809
:101F60001C4F394011439960A16861450BD001298C
:101F700009D00CE0DFF860E0A7690EEB47370F43AC
:101F800047F40061E5E7218A0D05A5F58015216874
:101F9000CB6A23F470032B43CB62216889680F4B13
:101FA0001940914208D1E662A16A21F0020141F094
:101FB0000101A162BDE8F081A06A20F0020040F0BA
:101FC0001000A062E06A40F00100E0620120F1E749
:101FD000003C0140FDF7E1FF00E0FFFFFE0E1FFFA8
:101FE00010B586B000210091019102910391006823
:101FF0001D49884235D11D48816941F400718161D4
:10200000816901F400710491816941F004018161E9
:10201000816901F004010491816941F0100181613D
:10202000816901F010010491816941F00801816129
:102030008069032400F0080004900220CDE9000428
:1020400069460B4800F09EFA3020CDE9000469464D
:10205000084800F097FA009469460748019400F098
:1020600091FA06B010BD00000024014000100240AB
:102070000008014000100140000C014010B590F82C
:1020800021100022022905D00421816380F820203C
:10209000012010BD01680B6823F00E030B6001687E
:1020A0000B6823F001030B6090F84030C46B0121F2
:1020B00001FA03F3636080F8211080F820201046B5
:1020C00010BD00002DE9F05F90F8211000240229D6
:1020D00003D004218163012485E001680A6822F0AD
:1020E0000E020A6001680A6822F001020A603F4E8F
:1020F0003E4FB215DFF8F4C0DFF8F090DFF8ECA047
:10210000DFF8E8B0DFF8E4E00168783F130115027A
:10211000ACF1640CA9F15009AAF13C0AABF1280B0F
:10212000AEF1140E4FF48018B14227D9B9420ED047
:10213000614512D049451DD0514518D0594518D098
:10214000714501D1424615E0294EB14201D101222B
:1021500010E0274E1436B14201D110220AE0244E7D
:102160002836B14206D0224A3C32914201D11A4669
:1021700000E02A461E49091F0A602BE0B94213D02D
:10218000614517D0494522D051451DD059451DD034
:10219000714501D142461AE0B14202D14FF080723E
:1021A00015E0134EB14201D1012210E0104E143659
:1021B000B14201D110220AE00D4E2836B14206D0BC
:1021C0000B4A3C32914201D11A4600E02A460749A7
:1021D00080394A60012180F82110002180F8201008
:1021E000416B01B188472046BDE8F09F8000024066
:1021F000080402402DE9F05FC16B0A6801680B68B2
:10220000046C4FF0040808FA04F8844D844E854F9E
:10221000DFF814C2DFF81492DFF814A2DFF814B26A
:10222000DFF814E218EA020F65D05FEA437862D55E
:102230000A68920603D40A6822F004020A60DFF8F2
:10224000F0814FF48062016808F114081301140250
:10225000414524D9A9420DD0B1420FD0B9421AD07C
:10226000614515D0494515D0514501D1120312E001
:10227000594501D104220EE0714501D140220AE006
:102280006D4D1435A94206D06B4A2832914201D1D6
:102290001A4600E022466749091F0A6029E0A94260
:1022A00013D0B14215D0B94220D061451BD0494569
:1022B0001BD0514502D14FF4800217E0414502D1B5
:1022C0004FF0806212E0594501D104220EE07145C1
:1022D00001D140220AE0584D1435A94206D0564A91
:1022E0002832914201D11A4600E022464B49083972
:1022F0004A60C16A71E04FF0020808FA04F818EA6F
:10230000020F70D05FEA83786DD50A68920606D412
:102310000A6822F00A020A60012180F82110DFF821
:1023200010814FF40072016808F1140813011402BF
:10233000414524D9A9420DD0B1420FD0B9421AD09B
:10234000614515D0494515D0514501D1120312E020
:10235000594501D102220EE0714501D120220AE047
:10236000354D1435A94206D0334A2832914201D165
:102370001A4600E022462F49091F0A6029E0A942B7
:1023800013D0B14215D0B94220D061451BD0494588
:102390001BD0514502D14FF4001217E0414502D144
:1023A0004FF0007212E0594501D102220EE0714552
:1023B00001D120220AE0204D1435A94206D01E4A40
:1023C0002832914201D11A4600E0224613490839C9
:1023D0004A60002180F82010816A00291CD0BDE8E5
:1023E000F05F0847FFE70825A540154214D01A07FB
:1023F00012D50A6822F00E020A6090F84020C36BE2
:10240000012101FA02F25A60816380F82110002153
:1024100080F82010016BE0E7BDE8F09F0800024063
:102420001C000240300002404400024058000240BC
:102430006C000240080402401C04024030B560B148
:102440001A4B026814219A4209D2194B1344B3FB68
:10245000F1F18900016417490AE0012030BD134BF6
:102460005B421344B3FBF1F1890001640F49083961
:10247000C163022180F82110136843F6F0718B4389
:10248000F0E901142143D0E902452C4321430469BA
:102490002143446921438469214319431160002188
:1024A0004163012242770177084630BD08040240AB
:1024B000F8FFFDBF0000024070B5044690F8200010
:1024C000002501280CD0012084F8200094F8216018
:1024D0000020012E06D084F820000225284670BD79
:1024E000022070BD022684F82160A063206806687F
:1024F00026F0010606602046FFF742FCE06A00284D
:102500002068016802D041F00E0106E021F00401CC
:1025100001602068016841F00A01016020680168DB
:1025200041F001010160D9E770B5044600F02CF9D3
:102530000546601C02D004480078044400F024F9E9
:10254000401BA042FAD370BD340000200649B0F50C
:10255000006F05D0042802D18868401C886070474D
:102560004868401C4860704700000020044910B5CE
:102570000A68024202D00860FFF7E8FF10BD0000C1
:10258000140401402DE9F84FDFF8C891002409F147
:10259000040A0AF1040B23460F270BF1040ED1E0C5
:1025A0000125A54006EA0502AA4276D1DFF8A8C1B6
:1025B0004E68A6EB0C0866452BD00DDC032E34D0FC
:1025C00005DC36B3012E19D0022E2FD11BE0112EBF
:1025D00016D0122E2AD119E0B8F5881F19D006DCC2
:1025E000B8F5803F15D0B8F5801F1FD111E0B8F5C0
:1025F000001F0ED0B8F5041F18D10AE0CB6815E013
:10260000CB681B1D12E0CB6808330FE0CB680C339E
:102610000CE08B682BB1012B4FF0080303D0456110
:1026200004E0042302E0056100E00023FF2A01D852
:10263000064601E000F104064FEA840501D9A5F140
:102640002005D6F8008007FA05FC28EA0C0803FAF2
:1026500005F548EA0508C6F800804D68ED0070D51C
:102660003E4DAE6946F00106AE61AD6924F0030649
:1026700005F0010500953A4D06EB050CDCF8085015
:10268000A607360F07FA06F825EA0805DFF8D48012
:10269000404503D14FF0000825E052E0DFF8C88044
:1026A000404502D14FF001081DE0DFF8C0804045F1
:1026B00002D14FF0020816E0DFF8B480404502D1A5
:1026C0004FF003080FE0DFF8AC80404502D14FF037
:1026D000040808E0DFF8A080404502D14FF005086B
:1026E00001E04FF0060808FA06F848EA0508CCF8B9
:1026F00008804D68D9F80060ED034D4601D51643BA
:1027000000E096432E604D68DAF80060AD03554650
:1027100001D5164300E096432E604D68DBF800605B
:10272000ED025D4601D5164300E096432E604D68EC
:10273000DEF80060AD02754601D5164300E0964311
:102740002E60641C0A681646E2407FF429AFBDE89B
:10275000F88F00000004014000001110001002403A
:102760000000014000080140000C01400010014041
:102770000014014000180140001C01400AB1016131
:1027800070470904FBE700000148806870470000BB
:102790003400002070B5040025D094F83D000025D9
:1027A00020B984F83C50204600F0B8F8242084F882
:1027B0003D002068016821F0010101602068016886
:1027C00041F4004101602068016821F4004101608A
:1027D00000F0F8FA4D4A6168914201D84C4900E096
:1027E0004C49884201D2012070BD4B492368B0FB9F
:1027F000F1F15E6826F03F060E435E606368934227
:1028000006D94FF4967359434FF47A73B1FBF3F141
:102810002368491C1E6A26F03F063143196261682D
:10282000914210D84900401EB0FBF1F2521CC2F395
:102830000B02042A01D2042022E0B0FBF1F0401C7C
:10284000C0F30B001CE0A268F2B301EBC10303EB81
:102850000116431EB3FBF6F35B1C43F480431B05D8
:1028600049D092B301EBC10202EB0111401EB0FB53
:10287000F1F0401CC0F30B0040F4804040F40040F5
:102880002168CA694CF6FF739A431043C861D4E9C2
:10289000071001432068026822F0C0021143016062
:1028A000D4E9030101432068826848F2FF339A4368
:1028B00011438160D4E9050108432168CA6822F008
:1028C000FF021043C86001E00EE016E020680168D6
:1028D00041F0010101602564202084F83D0025635A
:1028E00084F83E50002070BD01EB4106431EB3FB4F
:1028F000F6F35B1CB3E70120C2E701EB4101401E88
:10290000B0FBF1F0401CC0F30B00B7E7A08601005C
:1029100080841E0000093D0040420F0010B586B0C3
:1029200000210091019102910391006813498842AE
:1029300022D1134CA06940F00800A061A06969464B
:1029400000F0080004904FF44070009012200190B5
:10295000032003900B48FFF715FE0B48416841F038
:10296000E06141F002014160E06940F40010E06183
:10297000E06900F40010049006B010BD005400405F
:1029800000100240000C0140000001400248816834
:10299000027811448160704734000020074810B568
:1029A000016841F010010160032000F075F80F206C
:1029B00000F006F800F024F8002010BD00200240CE
:1029C00070B50D4D04464FF47A712878B1FBF0F0E4
:1029D0000A490968B1FBF0F001F009F948B9102C77
:1029E00007D200222146501E00F036F800206C600D
:1029F00070BD012070BD00003400002040000020A8
:102A00000C4808B5816941F001018161816901F0DB
:102A100001010091C16941F08051C161C06900F0BC
:102A2000805000900448416821F0E06141F000715D
:102A3000416008BD0010024000000140002809DB91
:102A400000F01F02012191404009800000F1E020C8
:102A5000C0F8001170470000F0B40E4B1B680C4624
:102A6000C3F30223C3F10705042D00D90425191D62
:102A7000072901D2002300E0DB1E012606FA05F13A
:102A8000491E214099409E40761E16403143F0BCBD
:102A900002F047BB0CED00E0064900F007020868B1
:102AA0004FF6FF03184040EA0220034A1043086033
:102AB000704700000CED00E00000FA05014901201C
:102AC0000862704700000E4210B52CA401461DCCD0
:102AD00086B08DE81D002DA02D4C006804900020CC
:102AE00004292FD00BDC01292FD0022928D100F096
:102AF00079F96168C1F38131491C49001EE0082958
:102B000020D010291CD161682268D20118D5C1F3E8
:102B10008342C9031DF8020009D5616804AAC1F304
:102B20004041515C1B4AB2FBF1F1484301E01A49B4
:102B300048436168490203D440000321B0FBF1F02F
:102B400006B010BD00F05EF9FAE7226AC2F3012177
:102B5000012903D1920701D5C803F1E7022905D164
:102B6000626A920702D549F64040E9E70329E7D1B6
:102B700021688903E4D54FF22440E1E7020304050C
:102B8000060708090A0B0C0D0E0F101001020000B9
:102B90000010024000127A0000093D002DE9F843C0
:102BA00005460078354CC00754D0E0690026C000C7
:102BB00008D4E06940F08050E061E069012600F04F
:102BC000805000902E480168C90512D401688046E3
:102BD00041F480710160FFF7D7FD074605E000BFB3
:102BE000FFF7D2FDC01B642823D8D8F80000C00529
:102BF000F6D5206A10F4407021D0A98801F4407104
:102C000081421CD0206A1F49012220F440700A60D2
:102C100000220A602062C00711D0FFF7B5FD074609
:102C20004FF4803808E000BFFFF7AEFDC01B404501
:102C300002D30320BDE8F883206A8007F4D5206A18
:102C4000696820F44070084320621EB1E06920F0FA
:102C50008050E0612878800705D56068A96820F475
:102C60004040084360602878C00605D560686969FF
:102C700020F48000084360600020DBE70010024081
:102C80000070004040044242704700002DE9F047C8
:102C90000F46050061D0434E306800F00700B8428F
:102CA00009D2306820F0070038433060306800F007
:102CB0000700B84251D128683B4C810712D5400724
:102CC00003D5606840F4E06060602878000703D5B1
:102CD000606840F4605060606068A96820F0F000AF
:102CE000084360602878C00728D06868012810D0A1
:102CF0002168022810D0890700292EDA616821F0A6
:102D0000030101436160FFF73FFD804641F28839CE
:102D10000DE021688903EFE78901EDE7FFF734FD56
:102D2000A0EB0801494502D90320BDE8F08760689F
:102D3000696800F00C00B0EB810FEFD1306800F053
:102D40000700B8420BD9306820F0070038433060E4
:102D5000306800F00700B84201D00120E5E728788C
:102D6000400705D56068E96820F4E06008436060CA
:102D70002878000706D56068296920F4605040EA89
:102D8000C100606000F03EF86168084AC1F30311B9
:102D9000515CC8400649086006480068FFF710FE0D
:102DA0000020C2E70020024000100240F469000841
:102DB000400000203800002001490120C86470470D
:102DC000000042420448054900684968044AC1F3CA
:102DD0000221515CC84070474000002000100240B2
:102DE000046A00080448054900684968044AC1F3B8
:102DF000C221515CC84070474000002000100240D2
:102E0000046A000812A185B00FC98DE80F0014A054
:102E1000144A006804905168134801F00C03042B15
:102E200010D0082B0ED1C1F38343C9031DF8030052
:102E30000AD5516804AAC1F34041515C0A4A504383
:102E4000B0FBF1F005B0704708494843FAE70000CD
:102E500002030405060708090A0B0C0D0E0F1010DB
:102E6000010200000010024000127A0000093D003B
:102E700010B5044CA068000603D5FFF705FF8020BD
:102E8000A07210BD001002402DE9F84F040072D06E
:102E90002078BE4DC0074FF4803949D06868C0F330
:102EA0008100012807D06868C0F38100022809D199
:102EB0006868C00306D52868800339D56068002893
:102EC000E5D035E060684E46B04203D1286840F452
:102ED00080300AE010B1B0F5A02F0DD0286820F4A2
:102EE00080302860286820F480202860606890B1D5
:102EF000FFF74AFC07460AE0286840F48020286073
:102F0000E4E700BFFFF740FCC01BB04273D2286863
:102F10008003F7D50CE0FFF737FC074605E000BF5C
:102F2000FFF732FCC01BB042F0D228688003F7D410
:102F30002078974E80074FF0010A4FF0000839D5EE
:102F4000686810F00C0F07D06868C0F38100022891
:102F500009D16868C00306D42868800714D52069A1
:102F6000012808D110E02069B0B1C6F800A0FFF731
:102F70000BFC074605E004E1FFF706FCC01B022836
:102F800039D828688007F7D52868616920F0F800EB
:102F900040EAC10028600DE0C6F80080FFF7F4FBAE
:102FA000074604E0FFF7F0FBC01B022823D828687F
:102FB0008007F7D4207800072CD57648A169D9B1CD
:102FC000C0F800A0FFF7E0FB074604E0FFF7DCFBDA
:102FD000C01B02280FD8686A8007F7D56E484FF4E7
:102FE000FA510068B0FBF1F0009000BF0098411E5C
:102FF0000091FAD20EE07CE0C0F80080FFF7C4FB3D
:10300000074604E0FFF7C0FBC01B022871D8686ABE
:103010008007F7D4207840075CD5E8690027C00016
:1030200008D4E86940F08050E861E869012700F0C1
:103030008050009059480168C90511D4016841F4D5
:1030400080710160FFF7A0FB834605E0FFF79CFB62
:10305000A0EB0B0064284CD850480068C005F5D59B
:10306000E06801280AD008B1052811D0286A20F0AC
:1030700001002862286A20F0040002E0286A40F07B
:1030800001002862E06898B1FFF77EFB83460BE001
:10309000286A40F004002862F0E700BFFFF774FBE5
:1030A000A0EB0B00484558D2286A8007F6D50CE003
:1030B000FFF76AFB834605E0FFF766FBA0EB0B001A
:1030C00048454AD2286A8007F6D41FB1E86920F043
:1030D0008050E861E06980B36968C1F38101022929
:1030E00042D00228C6F8608004D0FFF74DFB0446AA
:1030F00036E032E0FFF748FB074604E0FFF744FB09
:10310000C01B022829D828688001F7D4206A4845C6
:1031100005D16868A16820F4003008436860D4E9EC
:1031200008010843696821F4741108436860C6F80F
:1031300060A0FFF729FB044605E024E0FFF724FB2D
:10314000001B022809D828688001F7D51BE000BFC2
:10315000FFF71AFB001B022802D90320BDE8F88FF5
:1031600028688001F4D40EE00128F7D06868226A4C
:1031700000F48031914204D1616A00F470108842F9
:1031800001D00120EAE70020E8E70000001002403B
:103190000000424280044242400000200070004093
:1031A0007047704710B5044600680168C90717D01A
:1031B0004168C90714D040684007204607D5FFF78B
:1031C000F0FF21686FF004004860042002E0FFF780
:1031D000E7FF012060742068416821F0010141602F
:1031E00010BDF8B505004FF0000016460C460090E3
:1031F00006D02CB100226946284600F019F808B123
:103200000120F8BD287B2070E87BE070697B61704D
:10321000A97BA17056B101F09DFBE070607801F0D0
:1032200099FB6070A07801F095FBA0700020F8BDBC
:103230002DE9F04791460C465FEA00084AD084B376
:10324000D8F800004068400744D4404601F027FC0D
:103250004FF461620546B0FBF2F1B0FBF2F302FB02
:1032600013503C23B0FBF3F0B5FBF2F6607002FBA9
:103270001650B0FBF3F203FB1200A070182931D3F3
:103280001820B1FBF0F7B1FBF0F200FB1210207038
:10329000404601F0FDFB411C04D0A84202D9461B68
:1032A00002E017E04FF0FF36A7EB071000EB4000FD
:1032B000C0EB001005EBC0152946404601F03EFC6E
:1032C00040B9701C01D0711900E03146404601F050
:1032D00021FC10B10120BDE8F0873946404601F0DD
:1032E00044FB00E02170B9F1000F0BD0207801F011
:1032F00031FB2070607801F02DFB6070A07801F048
:1033000029FBA0700020E6E710B5044619B10022A1
:103310000648FFF78DFF002C06D02146BDE810407F
:1033200000220248FFF75DBF10BD0000F828002012
:1033300070B5040003D0607C002610B105E00120C8
:1033400070BD2674204600F043F8022060742046C9
:1033500000F01AF9042578BB204601F05DFB58BB4C
:103360002068416821F007014160A06820B117483A
:10337000016821F0010101601448001F0168A26882
:1033800021F46071114301606068411C04D1012087
:10339000FFF79AFB80B1401E21688A6822F00F0275
:1033A00042EA10428A602168CA6860F30F02CA606C
:1033B000204601F04BFB08B16574C0E7E6730120BD
:1033C0006073A0736074002070BD0000306C00401A
:1033D00008B500680D49884217D1FFF76FFB0C480C
:1033E000C16941F00061C161C0690A4900F0006033
:1033F000009001200860002211460320FFF72CFBFB
:10340000BDE808400320FFF719BB08BD00280040B5
:10341000001002403C0442422DE9F0410D460400F8
:103420003BD0C5B3207C01283AD04FF0010884F886
:10343000108002206074E87872B301F082FAE073C1
:10344000687801F07EFA6073A87801F07AFAA073C8
:10345000C2B2617BE07B01F032FB20732870204612
:1034600001F01DFB4FF46161B0FBF1F1002518295B
:103470002DD91822B1FBF2F1A1EB011101EB4101B1
:10348000C1EB011100EBC1163146204601F056FB9D
:103490000427C8B90BE000E004E00120BDE8F0819A
:1034A0000220FBE7E07368786073A878CFE72046D6
:1034B00001F0EEFA411C0AD0B04208D2064901449C
:1034C000204601F027FB10B167742574E5E784F806
:1034D000118025740020E1E7805101002DE9F041C1
:1034E0000D46040024D01DB3207C012823D04FF0CA
:1034F000010884F81080022060742878EAB101F095
:1035000020FA4FF4616100FB01F6687801F019FAC6
:10351000C0EB001006EB8006A87801F012FA35180F
:103520002946204601F00AFB0026042710BB0FE0C5
:103530000120BDE8F0810220FBE74FF461614843C0
:103540006978C1EB011100EB8100A9784518E7E724
:103550002068416821F005014160204601F098FA99
:10356000411C0AD0A84208D206490144204601F075
:10357000D1FA10B167742674DAE784F811802674E2
:103580000020D6E78051010070B504000AD0206801
:10359000416821F008014160FFF7F6F805464FF455
:1035A0007A7608E0012070BDFFF7EEF8401BB042CC
:1035B00001D9032070BD206840680007F4D50020C1
:1035C00070BD70B5040009D0606A002540B1256166
:1035D0006561A56294F8510040B10CE0012070BD16
:1035E0006068B0F5827FF4D0E561F2E784F850506E
:1035F000204600F03FF8022084F85100206801685E
:1036000021F040010160A088218900F4827001F45A
:1036100004410843A18901F400610843217C01F0C1
:1036200002010843217D01F001010843218B01F4CF
:1036300000710843217F01F03801084394F82010FD
:1036400001F080010843218D01F4005108432168F5
:103650000860A069042101EA1040216848602068E0
:10366000C16921F40061C1616565012084F85100E0
:10367000002070BD70B586B00024009401940294BF
:1036800003942D4B02682D49022503262C489A42AB
:103690001ED18A6942F480528A618A6902F480529A
:1036A00004928A6942F004028A618969039601F0F2
:1036B00004010491A021CDE9001569460546FEF7F5
:1036C00061FF4020CDE900046946284602942EE0BF
:1036D0001C4B9A422DD1CA6942F40042CA61CA69A0
:1036E00002F4004204928A6942F004028A618A6903
:1036F00002F0040204928A6942F008028A61896930
:1037000001F008010491D91300916946FEF73AFFD0
:103710002820CDE9000402940B4C69462046FEF7B0
:1037200031FF1020CDE90005694603962046FEF7DB
:1037300029FF06B070BD00000030014000100240BB
:1037400000080140003C0040000C01402DE9F84F0A
:10375000044640680025984616460F464FF0040B75
:10376000B0F5827F01D1A06888B194F8500001289B
:1037700018D0012084F85000FFF706F8814694F82D
:1037800051004FF0000A01280ED0022582E084F893
:1037900051B013460A462046CDF8008000F036F9B5
:1037A000BDE8F88F0220FBE7002F72D0002E70D00A
:1037B00084F851B0C4F854A0A763A687E687C4F87C
:1037C00030A0A4F834A0A4F836A0C4F840A0C4F8EF
:1037D00044A0A068B0F5004F09D12068016821F02D
:1037E000400101602068016821F480410160206887
:1037F0000168490603D4016841F040010160E068B6
:10380000D8B139E020688168C90709D0007BA16B75
:103810000870A06B401CA063E08F401EE0870CE0A6
:10382000FEF7B2FFA0EB0901414503D3B8F1FF3F1A
:1038300003D036E0B8F1000F33D0E08F0028E1D19B
:103840001DE020688168C90709D0C068A16B0880A5
:10385000A06B801CA063E08F401EE0870CE0FEF7A9
:1038600093FFA0EB0901414503D3B8F1FF3F03D01B
:1038700017E0B8F1000F14D0E08F0028E1D14A46DC
:103880004146204601F06EF908B120206065606D68
:1038900000B10125012084F8510084F850A0284689
:1038A0007EE70325F6E72DE9F84F044690F850002F
:1038B00000271D461646894601280DD04FF0010B02
:1038C00084F850B0FEF760FF804694F85100BA4685
:1038D000012804D0022793E00220BDE8F88FB9F157
:1038E000000F73D0002E71D0032084F85100C4F86B
:1038F00054A0C4F83090A686E686C4F838A0A4F890
:103900003CA0A4F83EA0C4F844A0C4F840A0A0681D
:10391000B0F5004F09D12068016821F04001016035
:103920002068016841F4804101602068016849060F
:1039300003D4016841F040010160E068B0F5006F18
:10394000606803D030B3012E24D041E008B1012ECD
:103950001CD1206B21680088C86006E0206881685F
:10396000890709D5216B0988C160206B801C206301
:10397000E08E401EE08609E0FEF706FFA0EB08009F
:10398000A84202D3681C01D031E07DB3E08E00284C
:10399000E4D120E0206B21680078087306E02068FD
:1039A0008168890709D5216B09780173206B401C58
:1039B0002063E08E401EE0860AE0FEF7E5FEA0EB05
:1039C0000800A84203D3681C02D010E017E06DB1D4
:1039D000E08E0028E3D142462946204601F0F0F867
:1039E00008B120206065A06818B106E0FFE7032752
:1039F00006E02068C16880680090606D00B1012712
:103A000084F851B084F850A0384666E72DE9F84FA5
:103A1000044690F8500000270A9E1D4692468B46A9
:103A20004FF0010901280ED0012084F85000FEF764
:103A3000ABFE804694F85100616801280CD0B1F5C6
:103A4000827F07D102E00220BDE8F88FA16809B9A2
:103A5000042801D00227C2E0BBF1000F27D0BAF141
:103A6000000F24D01DB394F85100042802D0052083
:103A700084F8510000206065C4F838A0E587A58768
:103A8000C4F830B0E586A5862064606420680168CB
:103A9000490603D4016841F040010160E068B0F5D7
:103AA000006F606805D0E8B3012D46D07FE00127A4
:103AB00095E008B1012D39D1206B21680088C860DC
:103AC000206B801C2063E08E401EE0862EE0206884
:103AD000816889070FD5E18E69B1B9F1010F0AD16B
:103AE000216B0988C160206B801C2063E08E401E22
:103AF000E0864FF0000920688168C9070CD0E18F8B
:103B000051B1C068A16B0880A06B801CA063E08FDE
:103B1000401EE0874FF00109FEF736FEA0EB0800DB
:103B2000B04200E009E001D3701C50D1E08E0028C3
:103B3000CDD1E08F0028CAD13FE0206B216800780A
:103B40000873206B401C2063E08E401EE0862EE050
:103B50002068816889070FD5E18E69B1B9F1010F3D
:103B60000AD1216B09780173206B401C2063E08E21
:103B7000401EE0864FF0000920688168C9070CD01C
:103B8000E18F51B1C068A16B0870A06B401CA063AD
:103B9000E08F401EE0874FF00109FEF7F5FDA0EB36
:103BA0000800B04202D3701C01D010E07EB1E08E5C
:103BB0000028CDD1E08F0028CAD1424631462046A8
:103BC00000F0FEFF28B101272020606507E00327F1
:103BD00005E0A06818B92068C168806800900120DD
:103BE00084F85100002084F8500038462CE710B5C6
:103BF000401EB0F1807F01D3012010BD4FF0E024C2
:103C000060610F21601701F08CFA0020A06107208D
:103C10002061002010BD70477047000070B590F81B
:103C20003C20012A2CD0012480F83C40022280F85C
:103C30003D2003685A689D6822F070060A68324386
:103C40005A60104B02689A420ED00F4B9A420BD02A
:103C5000B2F1804F08D00D4B9A4205D00C4B9A42DE
:103C600002D00C4B9A4204D1496825F080031943D5
:103C7000916080F83D40002180F83C10084670BDFE
:103C8000022070BD002C01400034014000040040BF
:103C900000080040000C004010B5040003D094F868
:103CA0003D0010B107E0012010BD002084F83C0069
:103CB000204600F01FF8022084F83D00211D2068F6
:103CC00001F03AF8012084F8460084F83E0084F8B8
:103CD0003F0084F8400084F8410084F8420084F8F2
:103CE000430084F8440084F8450084F83D00002037
:103CF00010BD000008B500680B49884212D10B487E
:103D0000816941F4006181618069002200F40060F2
:103D1000009011461920FEF79FFEBDE808401920CB
:103D2000FEF78CBE08BD0000002C014000100240D0
:103D300070B5044690F83C00012817D0012584F89E
:103D40003C50022084F83D002068826822F077020F
:103D500022F47F4282600868502830D00DDC202891
:103D60004DD005DC98B310283BD148E0022070BD4F
:103D7000302844D0402834D139E0602828D0702839
:103D800006D0B0F5805F2CD0B0F5005F29D10AE0F5
:103D9000CB68D1E90121206801F014F8206881681E
:103DA00041F0770109E0CB68D1E90121206801F0F9
:103DB00009F82068816841F48041816011E0CA6897
:103DC0004968206801F010F85021206807E016E0EB
:103DD000CA684968206801F018F86021206800F07E
:103DE000FBFF84F83D50002084F83C0070BDCA6899
:103DF0004968206800F0F8FF40212068EFE722685A
:103E000001461046EBE7704770B50446006801694B
:103E10004FF00005C943890715D4C168C943890714
:103E200011D4E91E01610120207720688069800794
:103E3000204602D0FFF7E7FF04E000F098F82046A4
:103E400000F096F8257720680169C943490717D41F
:103E5000C168C943490713D46FF00401016102200E
:103E600020772068806910F4407F204602D0FFF759
:103E7000CAFF04E000F07BF8204600F079F82577CF
:103E800020680169C943090716D4C168C9430907F5
:103E900012D46FF008010161042020772068C06906
:103EA0008007204602D0FFF7AEFF04E000F05FF885
:103EB000204600F05DF8257720680169C943C906EE
:103EC00017D4C168C943C90613D46FF0100101614A
:103ED000082020772068C06910F4407F204602D077
:103EE000FFF791FF04E000F042F8204600F040F8B0
:103EF000257720680169C943C90708D1C168C9434A
:103F0000C90704D1891E0161204600F032F82068FB
:103F10000169C943090609D4C168C943090605D422
:103F20006FF0800101612046FFF775FE206801698E
:103F3000C943490609D4C168C943490605D46FF08D
:103F400040010161204600F015F820680169C9436D
:103F500089060BD4C168C943890607D46FF02001D4
:103F600001612046BDE87040FFF756BE70BD704746
:103F7000704770477047704770470000F8B5026897
:103F800004461068D168536910F00F0F4FF0000518
:103F900054D003F0010601F4907737435FD0C20795
:103FA00005D0CA0503D5226C42F001022264420703
:103FB00005D5DA0703D0226C42F0020222648207A0
:103FC00005D5DA0703D0226C42F00402226402070E
:103FD00007D501F02002324303D0226C42F00802E0
:103FE0002264226C002A35D0800604D5880602D5CA
:103FF000204600F086FF20684069216CC0F38010E5
:1040000001F008010143204625D000F059FF206847
:10401000416949061BD5416921F040014161A06B0E
:10402000A8B158494163A06BFEF74CF8002811D0A5
:10403000A06B416B01B0BDE8F040084783060ED588
:104040008B060CD52046BDE8F84000F05ABF20464C
:10405000FFF792FFF8BDFFF78FFF2564F8BD266BD1
:104060002023012E52D1C60650D5CE064ED510685B
:1040700050680090506940062AD5A16B08684068D6
:104080000004000CEAD0A68D8642E7D9E085886955
:10409000202818D0D06820F48070D0602068416952
:1040A00021F0010141612068416921F04001416135
:1040B00084F83E3025632068C16821F01001C1609A
:1040C000A06BFDF7DBFFA08DE18D401A81B219E0F6
:1040D000A08DE18D401A81B2E08D0028BED000296C
:1040E000BCD0D06820F49070D0602068426922F083
:1040F0000102426184F83E3025632068C26822F0E4
:104100001002C2602046FFF736FFF8BD05062BD52A
:104110000D0629D594F83D002128F6D1A068B0F508
:10412000805F01D12069B0B1206A411C2162216801
:1041300000784860E08C401E0004000CE084E4D16C
:104140002068C16821F08001C1602068C16841F029
:104150004001C160F8BD206A0088C0F308005060CB
:10416000206A801C2062E5E74006F3D54806F1D5B9
:10417000D168204621F04001D16084F83D3000F044
:10418000F3F9F8BD2F4E000870B5040004D094F880
:104190003D00002510B106E0012070BD84F83C50C0
:1041A000204600F023F8242084F83D002068C168F0
:1041B00021F40051C160204600F0FEFE2068016934
:1041C00021F4904101612068416921F02A01416197
:1041D0002068C16841F40051C1602564202084F842
:1041E0003D0084F83E00002070BD00002DE9F04342
:1041F00085B0002400940194029403940546DFF8EE
:104200000482D0F800C08048022103227F4B10278F
:1042100080264FF48069C44545D1D0F818C04CF4CD
:10422000804CC0F818C0D0F818C00CF4804CCDF801
:1042300010C0D0F818C04CF0040CC0F818C0806949
:10424000039200F0040004900802CDE900016946E1
:1042500098461846FEF796F9CDE90094694640461F
:104260000294FEF78FF9DFF8AC8169494046C0E956
:104270000246C8F81040C8F81440C8F81840C8E909
:104280000017C8F81C40FEF7D9F808B1FDF795FDF6
:10429000C5F83480002211462520C8F82450FEF7C6
:1042A000DBFB252062E0DFF87081C44563D1D0F8E4
:1042B0001CC04CF4003CC0F81CC0D0F81CC00CF46E
:1042C000003CCDF810C0D0F818C04CF0040CC0F879
:1042D00018C08069039200F0040004900420CDE926
:1042E0000001694699461846FEF74CF90820CDE9C9
:1042F0000004A046694648460294FEF743F9DFF8F9
:104300001C91434948462831C0E90014C0E90246DF
:10431000C9F81040C9F81440C9F81840C9F81C4041
:10432000FEF78CF808B1FDF748FD39483C4CC5F85C
:1043300038903C30C9F82450C4E90007C4E902862B
:10434000C4F81080C4F81480C4F818802046C4F85B
:104350001C80FEF773F808B1FDF72FFD6C63002297
:10436000114626206562FEF777FB2620FEF766FBE6
:1043700005B0BDE8F0832B4B9C45F9D1C36943F4EC
:104380008023C361C36903F480230493836943F0EA
:10439000080383618069CDE9009100F00800CDE950
:1043A0000320DFF8848069464046FEF7EBF84FF4BF
:1043B0000060CDE90004694640460294FEF7E2F849
:1043C000DFF86880124940462839C0E90246C8F83B
:1043D0001040C8F81440C8F81840C8E90017C8F8D9
:1043E0001C40FEF72BF808B1FDF7E7FCC5F8348058
:1043F000002211462720C8F82450FEF72DFB272065
:10440000B4E70000003801400010024000080140FD
:1044100044000240EC510020004400403052002093
:104420007452002000480040000C0140B8520020A7
:10443000704700002DE9F843044690F83D001F4600
:1044400016460D4620284CD1C5B1BEB194F83C00AB
:10445000012846D0012084F83C004FF00008C4F841
:104460004080212084F83D00FEF78EF9A684814625
:10447000E684A068B0F5805F03D004E00120BDE8C9
:10448000F883206928B12E465FF0000584F83C804F
:104490000EE00026FAE78021204600F0E9FDA0B9F1
:1044A000AEB116F8010B21684860E08C401EE08434
:1044B000E08C4B464FF0000200970028EBD14FF004
:1044C0004001204600F0D4FD30B10320D7E735F895
:1044D000020BC0F30800E6E7202084F83D0000202E
:1044E000CDE70220CBE7000070B5044690F83D0010
:1044F000202830D169B362B394F83C0001282AD057
:10450000012084F83C002162A284E2840025256415
:10451000212084F83D00636B10489862636B10485B
:10452000D862636B0F481863606B13464563266857
:10453000606B321DFDF7C0FF21686FF0400008601E
:1045400084F83C502068416941F0800141610020BD
:1045500070BD012070BD022070BD0000894E0008B2
:10456000B74E00083F4E000870477047FEE7000056
:104570003EB5002411480094019402940E498460D1
:10458000016004730475012505614FF460214460E6
:10459000C161FDF793FC08B172B6FEE70820CDE9D2
:1045A0000005694602940548FDF70AFC002801D081
:1045B00072B6FEE73EBD00000024014074280020D2
:1045C0002DE9F04F85B000267F48009601960296AF
:1045D0000396816941F040018161816901F04001E8
:1045E0000491816941F010018161816901F010013C
:1045F0000491816941F004018161816901F0040144
:104600000491816941F008018161816901F008012B
:104610000491816941F0200181618069DFF8ACB1CA
:1046200000F020000490002204215846FEF7A6F86E
:10463000012230215846FEF7A1F8002241F2840100
:104640006348FEF79BF8012210216248FEF796F8B6
:104650004FF4805A002251465F48FEF78FF801223E
:1046600051035D48FEF78AF8012240215848FEF7C1
:1046700085F8002208215948FEF780F801224021E0
:104680005648FEF77BF801244FF00408CDE900847A
:10469000032569465846CDE90245FDF773FF4FF6FD
:1046A000CB70CDE9000569465846FDF76BFF4FF02A
:1046B00010090227CDF80090CDE901476946584618
:1046C0000397FDF75FFF2020CDE90004CDE9024705
:1046D00069465846FDF756FF42F20B70CDE90005DA
:1046E00069463B48FDF74EFFC420CDE90004CDE903
:1046F000024769463648FDF745FF41F60110CDE90E
:10470000000569463348FDF73DFFCDE90094694651
:104710003048CDE90245FDF735FF4CF2C400CDE944
:10472000000569462C48FDF72DFF2803CDE900045C
:1047300069462948CDE90245FDF724FF4FF6B370DD
:10474000CDE9000569462548FDF71CFFE002009011
:104750002348CDE9010669461D48FDF713FFCDE961
:1047600000A469461A48CDE90245FDF70BFF1D4834
:10477000CDF80080CDE9010669461848FDF702FF33
:1047800008208DE89100694614480397FDF7FAFE6A
:104790004020CDE90004CDE9024769460F48FDF706
:1047A000F1FE002211460820FEF756F90820FEF718
:1047B00045F9002211462820FEF74EF92820FEF781
:1047C0003DF905B0BDE8F08F00100240001801402F
:1047D0000010014000080140000C0140001401409D
:1047E00000001110000021101CB50024184801948D
:1047F000164900940160611E41604FF48071816030
:10480000FEF796FD08B172B6FEE78DF804408DF80C
:1048100005408DF80640002201A90D48FEF75EFE16
:1048200008B172B6FEE701208DF800008DF8010096
:104830008DF802008DF80340002269460448FEF717
:10484000EBFD002801D072B6FEE71CBD0028004039
:10485000F82800200F4810B50D4901604FF482710F
:10486000416000218160C1604FF400720161C0E9C4
:1048700005121022C0E90721416281620A21C1624A
:10488000FEF79FFE002801D072B6FEE710BD0000C3
:10489000003001400C2900200C4810B50A49016085
:1048A000002141608160C1600161416181610162FB
:1048B000416281620A21C162FEF783FE002801D0B5
:1048C00072B6FEE710BD0000003C004064290020E5
:1048D00010B586B000241748009401940294039404
:1048E000049413490594C0E900144FF6FF71C0E920
:1048F0000241046144618461FFF7CEF908B172B6E8
:10490000FEE74FF48050009069460A48FFF710FA1E
:1049100008B172B6FEE7049404A906480594FFF7AF
:104920007DF9002801D072B6FEE706B010BD000088
:10493000002C0140BC290020FEE7FEF799FAFEE7B3
:104940007047010901EB810100F00F0000EB41000D
:10495000C0B27047002102E00A38C0B2491C0A28E0
:10496000FAD2090740EA116070472DE9F041044688
:104970000025C07B627BA37B42E0012A16D0032A7C
:1049800014D0052A12D0072A10D0082A0ED00A2ADD
:104990000CD00C2A0AD0042A10D0062A0ED0092ADC
:1049A0000CD00B2A0AD0022A0DD028E01F2B0CD3E2
:1049B0000C2A05D101221346401C20E01E2B04D3F3
:1049C0000123521C1BE01C2B02D203F1010316E051
:1049D00011D183B29E0710D16426B3FBF6F706FB14
:1049E000173636B94FF4C876B3FBF6F706FB173324
:1049F0001BB91D2303E01D2B01D1032201236D1CD4
:104A00008D42BAD3D1B2E0736173DAB2A27300F00F
:104A100056F82073BDE8F08170B50446FDF7B4FE8A
:104A200005464FF47A7606E0FDF7AEFE401BB04235
:104A300001D9032070BD206840688006F4D5206845
:104A4000416841F010014160002070BD70B504461E
:104A50000068416821F010014160FDF795FE0546B0
:104A60004FF47A7607E000BFFDF78EFE401BB042A0
:104A700001D9032070BD206840688006F4D500206D
:104A800070BD00000148FEF78DBB0000F828002033
:104A90000168086A496A89B241EA004070470068C3
:104AA00081698AB2C1698BB2816989B28A4203D0B5
:104AB000C06961F31F40704743EA02407047F0B598
:104AC0006424C1EBC1030927A500072603EB0113EA
:104AD0000329B3FBF7F100F5FA60114401440AD24F
:104AE000401EB0FBF4F201EB9001B0FBF5F0891A27
:104AF0000844001D08E0B0FBF4F201EB9001B0FBAC
:104B0000F5F0891A0844801CB0FBF6F106FB110091
:104B1000C0B2F0BD70B50D4606460024FFF77CFF1D
:104B200048B93168280C08623168A8B2486230463A
:104B3000FFF78CFF00B10124204670BD70B50D4613
:104B400006460024FFF768FF48B93168280C8861E1
:104B50003168A8B2C8613046FFF778FF00B1012480
:104B6000204670BDF8B5044640684FF48273984201
:104B700017D1A0684FF48065B0F5004F01D0A8426E
:104B80000FD12068066826F04006066060689842EB
:104B900007D1A068A84204D100920B46002201214F
:104BA00003E000920B4600228021204600F018F816
:104BB000002804D0606D40F0200060650320F8BD3F
:104BC00038B50B46009204460022802100F008F818
:104BD000002804D0606D40F020006065032038BDDF
:104BE0002DE9F8431E46914688460446089DFDF788
:104BF000CBFD401B351AFDF7C7FD07462548006869
:104C0000C0F3CB30684338E0701C37D0FDF7BCFDF3
:104C1000C01BA84203D215B1009860B32CE02068F5
:104C2000416821F0E00141606068B0F5827F0BD1FE
:104C3000A068B0F5004F02D0B0F5806F04D12068B5
:104C4000016821F040010160A06AB0F5005F09D160
:104C50002068016821F4005101602068016841F476
:104C600000510160012084F85100002084F85000B8
:104C70000320BDE8F8830025401E0090206881686D
:104C800038EA010004D000214945BDD10020F0E7F9
:104C90000121F9E7400000207047FDF777BE30B5ED
:104CA00095B028216846FBF72EFD14210AA8FBF7D2
:104CB0002AFD18210FA8FBF726FD0121052000245D
:104CC0000090CDE902414FF480300190022504911B
:104CD000CDE907504FF4C01009906846FEF7D4F8AC
:104CE00008B172B6FEE70F20CDE90A054FF48060E7
:104CF000CDE90C4002210AA80E94FDF7C7FF08B1C8
:104D000072B6FEE703200F904FF4807010904FF4BE
:104D1000404011900FA8FDF741FF08B172B6FEE7C1
:104D2000FEF74AF815B030BD704700000148FFF7A4
:104D30006BB80000BC290020F0B502681C4B1D4D6B
:104D40001D4E1E4F1E4C4FF0804C984209D0A04281
:104D500007D0604505D0A84203D0B04201D0B84288
:104D600004D122F0700E4A6842EA0E02984209D03D
:104D7000A04207D0604505D0A84203D0B04201D080
:104D8000B84203D122F44075CA682A434D6922F023
:104D900080022A4302608A68C2620A68826298427C
:104DA00001D0A04201D10969016301214161F0BD37
:104DB000002C01400004004000080040000C0040AE
:104DC0000034014010B5846842EA032224F47F4491
:104DD0000A432243826010BD826822F070020A43B7
:104DE00042F007018160704710B5036A046A24F03D
:104DF00001040462846924F0F00444EA021423F0FC
:104E00000A020A438461026210BD10B5036A23F0EE
:104E1000100303628369046A23F4704343EA023295
:104E200024F0A00343EA01118261016210BD10B5B4
:104E3000406A0021C185C184FFF79EF810BD70B59E
:104E4000446A2068406994F83D10C0F3C010002502
:104E5000212904D118B1E584204600F049F82068E2
:104E6000406994F83E10C0F38010222904D118B193
:104E7000E585204600F024F8206C40F01000206406
:104E80002046FFF779F870BD10B50146406A096801
:104E9000096889060CD40021C18401684A6922F09E
:104EA00080024A610068C16841F04001C16010BDE4
:104EB000FFF75AFB10BD10B5406AFFF756FB10BD57
:104EC0000168CA6822F49072CA6001684A6922F0D7
:104ED00001024A61016B012904D10168CA6822F00C
:104EE0001002CA60202180F83E1000210163704743
:104EF0000168CA6822F0C002CA60202180F83D1013
:104F0000704708B590F83E10222901D0022008BD54
:104F100082684FF480539A4201D1016921B1816ABC
:104F20009A421BD04AB10AE00268816A5268C2F311
:104F300008020A80816A891C08E0026972B102686D
:104F4000526802F07F020A70816A491C8162C18D39
:104F5000491E0904090CC18503D019E00268526892
:104F6000F1E70168CA6822F02002CA600168CA68D5
:104F700022F48072CA6001684A6922F001024A6123
:104F8000202180F83E10016B012903D0FFF750FA71
:104F9000002008BD002101630168CA6822F01002E8
:104FA000CA6001680A68D20602D50A684968009199
:104FB000818DFEF7E0FFEBE770B5044600680169FC
:104FC000E26821F44051114301612169A06808435E
:104FD000616908432168CA6841F20C639A4302433D
:104FE000CA6020684169A26921F44071114341619E
:104FF0001E492068884202D1FDF7F4FE01E0FDF76A
:10500000E1FE00EBC00101EB00126068642180004A
:10501000B2FBF0F3B3FBF1F36FF018067343B2FB8E
:10502000F0F5B2FBF0F605EB8305322303EB051533
:10503000B5FBF1F5B6FBF1F605F0F00505EB06154D
:10504000B2FBF0F6B2FBF0F0B0FBF1F06FF018023B
:10505000504306EB800003EB0010B0FBF1F0216839
:1050600000F00F002844886070BD00000038014047
:105070002DE9F041984617460E460446069D1DE070
:10508000681C1BD02DB1FDF77FFBA0EB0800A842E8
:1050900014D92068C16821F4D071C16020684169C9
:1050A00021F001014161202084F83D0084F83E0098
:1050B000002084F83C000320BDE8F08120680068EF
:1050C00036EA000004D00020B842D9D00020F3E72F
:1050D0000120F9E70148FEF751BF0000042A002033
:1050E0000148FEF74BBF0000482A00200148FEF7A8
:1050F00045BF00008C2A0020FEE7490050EAC1208D
:1051000018BF04204A0D18BF40F0010040F2FF72A2
:10511000B2EB515F08BF40F00200012808BF052034
:1051200070470907090E002804DB00F1E02080F831
:105130000014704700F00F0000F1E02080F8141D0B
:10514000704730380A2801D201207047002070478C
:1051500070B50123002422464FF6F1750BE0865C02
:10516000521C3344B3FBF5F605FB16331C44B4FB69
:10517000F5F605FB16448A42F1D303EB044070BDFB
:1051800010B5017842780904807841EA0221014390
:105190000809B0F5002F02D306498143C84301F046
:1051A00093F9054A054B01F0A7F9BDE8104000F05E
:1051B00059BF0000FFFF0300DE718A8EE4F26F3FEB
:1051C00010B54178007800F00F0041EA0020A0F20D
:1051D0003C7001F079F9064A064B01F01DF80022F7
:1051E000054B01F087FABDE8104000F03BBF00001E
:1051F0009A99999999192240000039402DE9FF4761
:10520000064615460F46022000F0C8FCED280DD0DA
:1052100054A000F0B9FC034640F2EE30009056A2D4
:1052200062A1042000F0CAF9BDE8FF87002000F069
:10523000B5FC8146012000F0B1FC0446032000F0DB
:10524000ADFC804647A000F09FFC40F2F632CDE96D
:105250000029CDE90248034656A265A1022000F0CC
:10526000ADF952212F2000F04DFD31462C2000F0E9
:1052700049FD2946292000F045FD02212A2000F0A1
:1052800041FD3946282000F03DFD01212B2000F092
:1052900039FD2C2000F082FC0446B0420DD031A034
:1052A00000F072FC034640F20440CDE9000652A231
:1052B0005DA10294032000F081F92B2000F06EFC28
:1052C000044601280ED027A000F05EFC0346012012
:1052D00040F20941CDE9001055A2029452A10320E9
:1052E00000F06CF9282000F059FC0446B8420DD0BB
:1052F0001CA000F049FC034640F20E40CDE9000737
:1053000057A249A10294032000F058F9292000F087
:1053100045FC0446A8420DD012A000F035FC03461F
:1053200040F21340CDE9000559A23FA102940320A9
:1053300000F044F92A2000F031FC044602283FF432
:1053400073AF08A000F020FC034602204FF48361F5
:10535000CDE900105CA2029433A1032000F02EF9E5
:1053600062E700002E2E2F436F72652F5372632F5A
:105370006D61696E2E6300005B4D41494E5D257382
:10538000204C696E652025643A206164786C333561
:105390003520726561642072656769737465722077
:1053A0006661696C65640D0A000000006572726FC9
:1053B000720000005B4D41494E5D2573204C696EC3
:1053C000652025643A206164786C3335352041448A
:1053D0004949443A25752C204D454D5349443A25B9
:1053E000752C2052455649443A25750D0A00000097
:1053F000696E666F000000005B4D41494E5D25738C
:10540000204C696E652025643A20786C3335352050
:1054100072616E676520736574206661696C28250A
:10542000783A2578290D0A007761726E0000000035
:105430005B4D41494E5D2573204C696E65202564A6
:105440003A20786C3335352073796E632073657438
:10545000206661696C2825783A2578290D0A0000B4
:105460005B4D41494E5D2573204C696E6520256476
:105470003A20786C333535206F6472207365742060
:105480006661696C2825783A2578290D0A000000A4
:105490005B4D41494E5D2573204C696E6520256446
:1054A0003A20786C333535206669666F2073616DFC
:1054B000706C657320736574206661696C2825784B
:1054C0003A2578290D0A00005B4D41494E5D257350
:1054D000204C696E652025643A20786C3335352080
:1054E000696E745F6D617020736574206661696CAC
:1054F0002825783A2578290D0A0000001CB52D20B2
:1055000000F04CFB00F0FE012D2000F0FBFB2D20F5
:1055100000F044FB0446C0070ED008A000F034FBA6
:10552000034640F22640CDE9000409A213A104205D
:1055300000F044F84FF0FF301CBD00002E2E2F432A
:105540006F72652F5372632F6D61696E2E63000059
:105550005B4D41494E5D2573204C696E6520256485
:105560003A20786C3335352073746172742066612B
:10557000696C282578290D0A000000006572726F99
:10558000720000000248006802490861704700008C
:10559000E0F7FF1F00000020064801680648016090
:1055A0000449091D096841600249083109688160A0
:1055B00070470000E8F7FF1FD02A00200FB470B535
:1055C000C8B00D460446FC2107A8FBF79CF85CB167
:1055D000264C41F2883620886430B04206D3012040
:1055E00048B070BC5DF814FB0020F9E747A946A855
:1055F000FDF78AFE9DF81E019DF81D1104AB4FF4C6
:105600007A72039183E825009DF819019DF81C2109
:105610009DF81A118DE807009DF81B3114A2FA219C
:1056200007A803F5FA63FAF761FE0546C0F1FA012F
:1056300007A84FAB28444E9AFAF73EFE05440022D5
:10564000002D0FDD208815494319B34208DA0844BC
:105650002A4607A9FAF7E0FF208828442080C3E7FC
:105660000A5426804FF0FF30BAE700000000002007
:105670002534752F253032752F2530327520253091
:1056800032753A253032753A253032752E25303351
:10569000755B25352E35735D20000000DC2A002067
:1056A00070B50E4C2088B0B141F288350C492A46BD
:1056B0004819FAF7F6FF0B48FAF78FFF094982B24B
:1056C000A1F5A350FEF710FF29460548FBF71BF88C
:1056D0000020208070BD4FF0FF3070BD0000002022
:1056E000DC2A0020643E00208AB0FDF757F9FFF75E
:1056F000D6FAFEF765FFCC48416941F001014161EE
:105700004069002200F00100009011460C20FDF7D6
:10571000A3F90C20FDF792F9002211460E20FDF7A7
:105720009BF90E20FDF78AF9002211461020FDF7A3
:1057300093F91020FDF782F9002211461120FDF7A0
:105740008BF91120FDF77AF9FEF712FFB848B74937
:1057500000240160B749C0E901144FF48041C0E959
:10576000034144618461C4610462FDF713F808B128
:1057700072B6FEE7FFF738F8FFF76CF8FFF78CF822
:10578000FFF7A6F8AD48AC49AD4D0160C0E9015442
:105790000C26C460C0E904468461C461FEF7F4FCD1
:1057A00008B172B6FEE7A548A649443001604FF43F
:1057B0001651C0E90114C460C0E904468461C461A3
:1057C000FEF7E2FC08B172B6FEE79C489E498830BD
:1057D000C0E9001500218160C160C0E90416816143
:1057E000C161FEF7D1FC08B172B6FEE797A000F0E8
:1057F000CBF90346A420009099A2A3A10220FFF7B1
:10580000DDFEFFF7C9FE91A000F0BEF98B4903460B
:10581000CC31AA2407C903900094CDE901219CA2B0
:1058200099A10220FFF7CAFEFFF7ACFE87A000F0A7
:10583000ABF9A54D034629690A0C88B2B021009145
:10584000CDE90102A1A290A10220FFF7B7FE00F06E
:10585000C7FB6420FCF768FE00F07CFAFFF720FF2E
:105860003F220321C120FFF7C9FC4FF4FA7402E084
:105870002046FCF759FEA8680A28F9DB73A000F05F
:1058800083F9BB2103460091A0A27FA10220FFF76C
:1058900095FEFFF733FE00224FF48051A548FCF738
:1058A0006DFFFFF7FDFE0024874840680028FBDD00
:1058B000A14900200B2248628862C8622431062078
:1058C00000F096F99C482C30FFF75AFC01F008F8DC
:1058D000994D82462435681D0091FFF751FC00F078
:1058E000FFFF07468B46A81CFFF74AFC00F0F8FFB5
:1058F000804689462846FFF763FC00F0F1FF054625
:105900000E4652A000F040F900990346CDE908A1E7
:10591000CC2000900DF1080C884A8CE86003CDE99A
:10592000067B87A10120FFF749FE874E3F223119F0
:10593000112000F05DF945A000F026F9624F034602
:10594000D2217868CDE90014029080A27CA10120C8
:10595000FFF734FEA51C3F342DE0705DC00729D051
:1059600006EB050808F10400FFF70AFC00F0B8FF99
:10597000CDE9000108F10100FFF702FC00F0B0FFE3
:1059800082468B46A8F10200FFF7FAFB00F0A8FF61
:10599000804689462DA000F0F7F80346DDE90001B6
:1059A000CDE90601D8208DE8210F754A64A10120B8
:1059B000FFF704FE0935A542CFDBFFF771FE41F288
:1059C0007135AC422DDB002441F29C316D48FAF771
:1059D0009AFE6C4EEF202A46307070700020B07036
:1059E000F07013203071712070715749B01DFAF7B3
:1059F00013FEAD1D29463046FFF7AAFB010E715577
:105A00007119020C4A70020A8A70C870491B2A1D5B
:105A100001F5B650FEF768FD41F28831701AFAF7C9
:105A200072FE002078603FE7001002400054004002
:105A3000A4280020A086010000380140042A00208C
:105A400080841E0000440040004800402E2E2F435A
:105A50006F72652F5372632F6D61696E2E63000044
:105A60005B4D41494E5D2573204C696E6520256470
:105A70003A2073746172742073746D3332663130FE
:105A800033766374360D0A00696E666F000000009D
:105A90005B4D41494E5D2573204C696E6520256440
:105AA0003A205468652043505520556E69717565DC
:105AB000204465766963652049443A5B25582D2565
:105AC000582D25585D0D0A00000000205B4D41490E
:105AD0004E5D2573204C696E652025643A2054681C
